{
	"Voting.sol": {
		"Voting": {
			"abi": [
				{
					"inputs": [
						{
							"internalType": "bytes32[]",
							"name": "proposalNames",
							"type": "bytes32[]"
						}
					],
					"stateMutability": "nonpayable",
					"type": "constructor"
				},
				{
					"inputs": [],
					"name": "voting__alreadyGivenVotingRights",
					"type": "error"
				},
				{
					"inputs": [],
					"name": "voting__alreadyVoted",
					"type": "error"
				},
				{
					"inputs": [],
					"name": "voting__cannotDelegateOneself",
					"type": "error"
				},
				{
					"inputs": [],
					"name": "voting__loopInDelegation",
					"type": "error"
				},
				{
					"inputs": [],
					"name": "voting__noVotingRights",
					"type": "error"
				},
				{
					"inputs": [],
					"name": "voting__onlyChairPerson",
					"type": "error"
				},
				{
					"inputs": [],
					"name": "voting__proposalNotFound",
					"type": "error"
				},
				{
					"inputs": [],
					"name": "voting__thereIsATie",
					"type": "error"
				},
				{
					"inputs": [
						{
							"internalType": "address",
							"name": "_delegated",
							"type": "address"
						}
					],
					"name": "delegate",
					"outputs": [],
					"stateMutability": "nonpayable",
					"type": "function"
				},
				{
					"inputs": [],
					"name": "getChairPerson",
					"outputs": [
						{
							"internalType": "address",
							"name": "",
							"type": "address"
						}
					],
					"stateMutability": "view",
					"type": "function"
				},
				{
					"inputs": [
						{
							"internalType": "uint256",
							"name": "_proposalIndex",
							"type": "uint256"
						}
					],
					"name": "getProposal",
					"outputs": [
						{
							"components": [
								{
									"internalType": "bytes32",
									"name": "name",
									"type": "bytes32"
								},
								{
									"internalType": "uint256",
									"name": "voteCount",
									"type": "uint256"
								}
							],
							"internalType": "struct Voting.Proposal",
							"name": "",
							"type": "tuple"
						}
					],
					"stateMutability": "view",
					"type": "function"
				},
				{
					"inputs": [
						{
							"internalType": "address",
							"name": "_voterAddress",
							"type": "address"
						}
					],
					"name": "getVoter",
					"outputs": [
						{
							"components": [
								{
									"internalType": "uint256",
									"name": "weight",
									"type": "uint256"
								},
								{
									"internalType": "bool",
									"name": "voted",
									"type": "bool"
								},
								{
									"internalType": "address",
									"name": "delegate",
									"type": "address"
								},
								{
									"internalType": "uint256",
									"name": "vote",
									"type": "uint256"
								}
							],
							"internalType": "struct Voting.Voter",
							"name": "",
							"type": "tuple"
						}
					],
					"stateMutability": "view",
					"type": "function"
				},
				{
					"inputs": [
						{
							"internalType": "address",
							"name": "_voter",
							"type": "address"
						}
					],
					"name": "giveRightToVote",
					"outputs": [],
					"stateMutability": "nonpayable",
					"type": "function"
				},
				{
					"inputs": [
						{
							"internalType": "uint256",
							"name": "_vote",
							"type": "uint256"
						}
					],
					"name": "vote",
					"outputs": [],
					"stateMutability": "nonpayable",
					"type": "function"
				},
				{
					"inputs": [],
					"name": "winnerName",
					"outputs": [
						{
							"internalType": "bytes32",
							"name": "WinnerName",
							"type": "bytes32"
						}
					],
					"stateMutability": "view",
					"type": "function"
				}
			],
			"devdoc": {
				"kind": "dev",
				"methods": {},
				"version": 1
			},
			"evm": {
				"assembly": "    /* \"Voting.sol\":60:6887  contract Voting{... */\n  mstore(0x40, 0x80)\n    /* \"Voting.sol\":1128:1650  constructor(bytes32[] memory proposalNames){... */\n  callvalue\n  dup1\n  iszero\n  tag_1\n  jumpi\n  revert(0x00, 0x00)\ntag_1:\n  pop\n  mload(0x40)\n  sub(codesize, bytecodeSize)\n  dup1\n  bytecodeSize\n  dup4\n  codecopy\n  dup2\n  dup2\n  add\n  0x40\n  mstore\n  dup2\n  add\n  swap1\n  tag_2\n  swap2\n  swap1\n  tag_3\n  jump\t// in\ntag_2:\n    /* \"Voting.sol\":1196:1206  msg.sender */\n  caller\n    /* \"Voting.sol\":1182:1193  chairPerson */\n  0x00\n  0x00\n    /* \"Voting.sol\":1182:1206  chairPerson = msg.sender */\n  0x0100\n  exp\n  dup2\n  sload\n  dup2\n  0xffffffffffffffffffffffffffffffffffffffff\n  mul\n  not\n  and\n  swap1\n  dup4\n  0xffffffffffffffffffffffffffffffffffffffff\n  and\n  mul\n  or\n  swap1\n  sstore\n  pop\n    /* \"Voting.sol\":1285:1286  1 */\n  0x01\n    /* \"Voting.sol\":1256:1262  voters */\n  dup1\n    /* \"Voting.sol\":1256:1275  voters[chairPerson] */\n  0x00\n    /* \"Voting.sol\":1263:1274  chairPerson */\n  0x00\n  0x00\n  swap1\n  sload\n  swap1\n  0x0100\n  exp\n  swap1\n  div\n  0xffffffffffffffffffffffffffffffffffffffff\n  and\n    /* \"Voting.sol\":1256:1275  voters[chairPerson] */\n  0xffffffffffffffffffffffffffffffffffffffff\n  and\n  0xffffffffffffffffffffffffffffffffffffffff\n  and\n  dup2\n  mstore\n  0x20\n  add\n  swap1\n  dup2\n  mstore\n  0x20\n  add\n  0x00\n  keccak256\n    /* \"Voting.sol\":1256:1282  voters[chairPerson].weight */\n  0x00\n  add\n    /* \"Voting.sol\":1256:1286  voters[chairPerson].weight = 1 */\n  dup2\n  swap1\n  sstore\n  pop\n    /* \"Voting.sol\":1343:1349  uint i */\n  0x00\n    /* \"Voting.sol\":1350:1351  0 */\n  0x00\n    /* \"Voting.sol\":1343:1351  uint i=0 */\n  swap1\n  pop\n    /* \"Voting.sol\":1339:1643  for(uint i=0 ; i< proposalNames.length; i++){... */\ntag_6:\n    /* \"Voting.sol\":1357:1370  proposalNames */\n  dup2\n    /* \"Voting.sol\":1357:1377  proposalNames.length */\n  mload\n    /* \"Voting.sol\":1354:1355  i */\n  dup2\n    /* \"Voting.sol\":1354:1377  i< proposalNames.length */\n  lt\n    /* \"Voting.sol\":1339:1643  for(uint i=0 ; i< proposalNames.length; i++){... */\n  iszero\n  tag_7\n  jumpi\n    /* \"Voting.sol\":1522:1531  proposals */\n  0x02\n    /* \"Voting.sol\":1537:1630  Proposal({... */\n  mload(0x40)\n  dup1\n  0x40\n  add\n  0x40\n  mstore\n  dup1\n    /* \"Voting.sol\":1571:1584  proposalNames */\n  dup5\n    /* \"Voting.sol\":1585:1586  i */\n  dup5\n    /* \"Voting.sol\":1571:1587  proposalNames[i] */\n  dup2\n  mload\n  dup2\n  lt\n  tag_9\n  jumpi\n  tag_10\n  tag_11\n  jump\t// in\ntag_10:\ntag_9:\n  0x20\n  mul\n  0x20\n  add\n  add\n  mload\n    /* \"Voting.sol\":1537:1630  Proposal({... */\n  dup2\n  mstore\n  0x20\n  add\n    /* \"Voting.sol\":1617:1618  0 */\n  0x00\n    /* \"Voting.sol\":1537:1630  Proposal({... */\n  dup2\n  mstore\n  pop\n    /* \"Voting.sol\":1522:1631  proposals.push(Proposal({... */\n  swap1\n  dup1\n  0x01\n  dup2\n  sload\n  add\n  dup1\n  dup3\n  sstore\n  dup1\n  swap2\n  pop\n  pop\n  0x01\n  swap1\n  sub\n  swap1\n  0x00\n  mstore\n  keccak256(0x00, 0x20)\n  swap1\n  0x02\n  mul\n  add\n  0x00\n  swap1\n  swap2\n  swap1\n  swap2\n  swap1\n  swap2\n  pop\n  0x00\n  dup3\n  add\n  mload\n  dup2\n  0x00\n  add\n  sstore\n  0x20\n  dup3\n  add\n  mload\n  dup2\n  0x01\n  add\n  sstore\n  pop\n  pop\n    /* \"Voting.sol\":1379:1382  i++ */\n  dup1\n  dup1\n  0x01\n  add\n  swap2\n  pop\n  pop\n    /* \"Voting.sol\":1339:1643  for(uint i=0 ; i< proposalNames.length; i++){... */\n  jump(tag_6)\ntag_7:\n  pop\n    /* \"Voting.sol\":1128:1650  constructor(bytes32[] memory proposalNames){... */\n  pop\n    /* \"Voting.sol\":60:6887  contract Voting{... */\n  jump(tag_13)\n    /* \"#utility.yul\":7:82   */\ntag_14:\n    /* \"#utility.yul\":40:46   */\n  0x00\n    /* \"#utility.yul\":73:75   */\n  0x40\n    /* \"#utility.yul\":67:76   */\n  mload\n    /* \"#utility.yul\":57:76   */\n  swap1\n  pop\n    /* \"#utility.yul\":7:82   */\n  swap1\n  jump\t// out\n    /* \"#utility.yul\":88:205   */\ntag_15:\n    /* \"#utility.yul\":197:198   */\n  0x00\n    /* \"#utility.yul\":194:195   */\n  0x00\n    /* \"#utility.yul\":187:199   */\n  revert\n    /* \"#utility.yul\":211:328   */\ntag_16:\n    /* \"#utility.yul\":320:321   */\n  0x00\n    /* \"#utility.yul\":317:318   */\n  0x00\n    /* \"#utility.yul\":310:322   */\n  revert\n    /* \"#utility.yul\":334:451   */\ntag_17:\n    /* \"#utility.yul\":443:444   */\n  0x00\n    /* \"#utility.yul\":440:441   */\n  0x00\n    /* \"#utility.yul\":433:445   */\n  revert\n    /* \"#utility.yul\":457:559   */\ntag_18:\n    /* \"#utility.yul\":498:504   */\n  0x00\n    /* \"#utility.yul\":549:551   */\n  0x1f\n    /* \"#utility.yul\":545:552   */\n  not\n    /* \"#utility.yul\":540:542   */\n  0x1f\n    /* \"#utility.yul\":533:538   */\n  dup4\n    /* \"#utility.yul\":529:543   */\n  add\n    /* \"#utility.yul\":525:553   */\n  and\n    /* \"#utility.yul\":515:553   */\n  swap1\n  pop\n    /* \"#utility.yul\":457:559   */\n  swap2\n  swap1\n  pop\n  jump\t// out\n    /* \"#utility.yul\":565:745   */\ntag_19:\n    /* \"#utility.yul\":613:690   */\n  0x4e487b7100000000000000000000000000000000000000000000000000000000\n    /* \"#utility.yul\":610:611   */\n  0x00\n    /* \"#utility.yul\":603:691   */\n  mstore\n    /* \"#utility.yul\":710:714   */\n  0x41\n    /* \"#utility.yul\":707:708   */\n  0x04\n    /* \"#utility.yul\":700:715   */\n  mstore\n    /* \"#utility.yul\":734:738   */\n  0x24\n    /* \"#utility.yul\":731:732   */\n  0x00\n    /* \"#utility.yul\":724:739   */\n  revert\n    /* \"#utility.yul\":751:1032   */\ntag_20:\n    /* \"#utility.yul\":834:861   */\n  tag_37\n    /* \"#utility.yul\":856:860   */\n  dup3\n    /* \"#utility.yul\":834:861   */\n  tag_18\n  jump\t// in\ntag_37:\n    /* \"#utility.yul\":826:832   */\n  dup2\n    /* \"#utility.yul\":822:862   */\n  add\n    /* \"#utility.yul\":964:970   */\n  dup2\n    /* \"#utility.yul\":952:962   */\n  dup2\n    /* \"#utility.yul\":949:971   */\n  lt\n    /* \"#utility.yul\":928:946   */\n  0xffffffffffffffff\n    /* \"#utility.yul\":916:926   */\n  dup3\n    /* \"#utility.yul\":913:947   */\n  gt\n    /* \"#utility.yul\":910:972   */\n  or\n    /* \"#utility.yul\":907:995   */\n  iszero\n  tag_38\n  jumpi\n    /* \"#utility.yul\":975:993   */\n  tag_39\n  tag_19\n  jump\t// in\ntag_39:\n    /* \"#utility.yul\":907:995   */\ntag_38:\n    /* \"#utility.yul\":1015:1025   */\n  dup1\n    /* \"#utility.yul\":1011:1013   */\n  0x40\n    /* \"#utility.yul\":1004:1026   */\n  mstore\n    /* \"#utility.yul\":794:1032   */\n  pop\n    /* \"#utility.yul\":751:1032   */\n  pop\n  pop\n  jump\t// out\n    /* \"#utility.yul\":1038:1167   */\ntag_21:\n    /* \"#utility.yul\":1072:1078   */\n  0x00\n    /* \"#utility.yul\":1099:1119   */\n  tag_41\n  tag_14\n  jump\t// in\ntag_41:\n    /* \"#utility.yul\":1089:1119   */\n  swap1\n  pop\n    /* \"#utility.yul\":1128:1161   */\n  tag_42\n    /* \"#utility.yul\":1156:1160   */\n  dup3\n    /* \"#utility.yul\":1148:1154   */\n  dup3\n    /* \"#utility.yul\":1128:1161   */\n  tag_20\n  jump\t// in\ntag_42:\n    /* \"#utility.yul\":1038:1167   */\n  swap2\n  swap1\n  pop\n  jump\t// out\n    /* \"#utility.yul\":1173:1484   */\ntag_22:\n    /* \"#utility.yul\":1250:1254   */\n  0x00\n    /* \"#utility.yul\":1340:1358   */\n  0xffffffffffffffff\n    /* \"#utility.yul\":1332:1338   */\n  dup3\n    /* \"#utility.yul\":1329:1359   */\n  gt\n    /* \"#utility.yul\":1326:1382   */\n  iszero\n  tag_44\n  jumpi\n    /* \"#utility.yul\":1362:1380   */\n  tag_45\n  tag_19\n  jump\t// in\ntag_45:\n    /* \"#utility.yul\":1326:1382   */\ntag_44:\n    /* \"#utility.yul\":1412:1416   */\n  0x20\n    /* \"#utility.yul\":1404:1410   */\n  dup3\n    /* \"#utility.yul\":1400:1417   */\n  mul\n    /* \"#utility.yul\":1392:1417   */\n  swap1\n  pop\n    /* \"#utility.yul\":1472:1476   */\n  0x20\n    /* \"#utility.yul\":1466:1470   */\n  dup2\n    /* \"#utility.yul\":1462:1477   */\n  add\n    /* \"#utility.yul\":1454:1477   */\n  swap1\n  pop\n    /* \"#utility.yul\":1173:1484   */\n  swap2\n  swap1\n  pop\n  jump\t// out\n    /* \"#utility.yul\":1490:1607   */\ntag_23:\n    /* \"#utility.yul\":1599:1600   */\n  0x00\n    /* \"#utility.yul\":1596:1597   */\n  0x00\n    /* \"#utility.yul\":1589:1601   */\n  revert\n    /* \"#utility.yul\":1613:1690   */\ntag_24:\n    /* \"#utility.yul\":1650:1657   */\n  0x00\n    /* \"#utility.yul\":1679:1684   */\n  dup2\n    /* \"#utility.yul\":1668:1684   */\n  swap1\n  pop\n    /* \"#utility.yul\":1613:1690   */\n  swap2\n  swap1\n  pop\n  jump\t// out\n    /* \"#utility.yul\":1696:1818   */\ntag_25:\n    /* \"#utility.yul\":1769:1793   */\n  tag_49\n    /* \"#utility.yul\":1787:1792   */\n  dup2\n    /* \"#utility.yul\":1769:1793   */\n  tag_24\n  jump\t// in\ntag_49:\n    /* \"#utility.yul\":1762:1767   */\n  dup2\n    /* \"#utility.yul\":1759:1794   */\n  eq\n    /* \"#utility.yul\":1749:1812   */\n  tag_50\n  jumpi\n    /* \"#utility.yul\":1808:1809   */\n  0x00\n    /* \"#utility.yul\":1805:1806   */\n  0x00\n    /* \"#utility.yul\":1798:1810   */\n  revert\n    /* \"#utility.yul\":1749:1812   */\ntag_50:\n    /* \"#utility.yul\":1696:1818   */\n  pop\n  jump\t// out\n    /* \"#utility.yul\":1824:1967   */\ntag_26:\n    /* \"#utility.yul\":1881:1886   */\n  0x00\n    /* \"#utility.yul\":1912:1918   */\n  dup2\n    /* \"#utility.yul\":1906:1919   */\n  mload\n    /* \"#utility.yul\":1897:1919   */\n  swap1\n  pop\n    /* \"#utility.yul\":1928:1961   */\n  tag_52\n    /* \"#utility.yul\":1955:1960   */\n  dup2\n    /* \"#utility.yul\":1928:1961   */\n  tag_25\n  jump\t// in\ntag_52:\n    /* \"#utility.yul\":1824:1967   */\n  swap3\n  swap2\n  pop\n  pop\n  jump\t// out\n    /* \"#utility.yul\":1990:2722   */\ntag_27:\n    /* \"#utility.yul\":2097:2102   */\n  0x00\n    /* \"#utility.yul\":2122:2203   */\n  tag_54\n    /* \"#utility.yul\":2138:2202   */\n  tag_55\n    /* \"#utility.yul\":2195:2201   */\n  dup5\n    /* \"#utility.yul\":2138:2202   */\n  tag_22\n  jump\t// in\ntag_55:\n    /* \"#utility.yul\":2122:2203   */\n  tag_21\n  jump\t// in\ntag_54:\n    /* \"#utility.yul\":2113:2203   */\n  swap1\n  pop\n    /* \"#utility.yul\":2223:2228   */\n  dup1\n    /* \"#utility.yul\":2252:2258   */\n  dup4\n    /* \"#utility.yul\":2245:2250   */\n  dup3\n    /* \"#utility.yul\":2238:2259   */\n  mstore\n    /* \"#utility.yul\":2286:2290   */\n  0x20\n    /* \"#utility.yul\":2279:2284   */\n  dup3\n    /* \"#utility.yul\":2275:2291   */\n  add\n    /* \"#utility.yul\":2268:2291   */\n  swap1\n  pop\n    /* \"#utility.yul\":2339:2343   */\n  0x20\n    /* \"#utility.yul\":2331:2337   */\n  dup5\n    /* \"#utility.yul\":2327:2344   */\n  mul\n    /* \"#utility.yul\":2319:2325   */\n  dup4\n    /* \"#utility.yul\":2315:2345   */\n  add\n    /* \"#utility.yul\":2368:2371   */\n  dup6\n    /* \"#utility.yul\":2360:2366   */\n  dup2\n    /* \"#utility.yul\":2357:2372   */\n  gt\n    /* \"#utility.yul\":2354:2476   */\n  iszero\n  tag_56\n  jumpi\n    /* \"#utility.yul\":2387:2466   */\n  tag_57\n  tag_23\n  jump\t// in\ntag_57:\n    /* \"#utility.yul\":2354:2476   */\ntag_56:\n    /* \"#utility.yul\":2502:2508   */\n  dup4\n    /* \"#utility.yul\":2485:2716   */\ntag_58:\n    /* \"#utility.yul\":2519:2525   */\n  dup2\n    /* \"#utility.yul\":2514:2517   */\n  dup2\n    /* \"#utility.yul\":2511:2526   */\n  lt\n    /* \"#utility.yul\":2485:2716   */\n  iszero\n  tag_60\n  jumpi\n    /* \"#utility.yul\":2594:2597   */\n  dup1\n    /* \"#utility.yul\":2623:2671   */\n  tag_61\n    /* \"#utility.yul\":2667:2670   */\n  dup9\n    /* \"#utility.yul\":2655:2665   */\n  dup3\n    /* \"#utility.yul\":2623:2671   */\n  tag_26\n  jump\t// in\ntag_61:\n    /* \"#utility.yul\":2618:2621   */\n  dup5\n    /* \"#utility.yul\":2611:2672   */\n  mstore\n    /* \"#utility.yul\":2701:2705   */\n  0x20\n    /* \"#utility.yul\":2696:2699   */\n  dup5\n    /* \"#utility.yul\":2692:2706   */\n  add\n    /* \"#utility.yul\":2685:2706   */\n  swap4\n  pop\n    /* \"#utility.yul\":2561:2716   */\n  pop\n    /* \"#utility.yul\":2545:2549   */\n  0x20\n    /* \"#utility.yul\":2540:2543   */\n  dup2\n    /* \"#utility.yul\":2536:2550   */\n  add\n    /* \"#utility.yul\":2529:2550   */\n  swap1\n  pop\n    /* \"#utility.yul\":2485:2716   */\n  jump(tag_58)\ntag_60:\n    /* \"#utility.yul\":2489:2510   */\n  pop\n    /* \"#utility.yul\":2103:2722   */\n  pop\n  pop\n    /* \"#utility.yul\":1990:2722   */\n  swap4\n  swap3\n  pop\n  pop\n  pop\n  jump\t// out\n    /* \"#utility.yul\":2745:3130   */\ntag_28:\n    /* \"#utility.yul\":2827:2832   */\n  0x00\n    /* \"#utility.yul\":2876:2879   */\n  dup3\n    /* \"#utility.yul\":2869:2873   */\n  0x1f\n    /* \"#utility.yul\":2861:2867   */\n  dup4\n    /* \"#utility.yul\":2857:2874   */\n  add\n    /* \"#utility.yul\":2853:2880   */\n  slt\n    /* \"#utility.yul\":2843:2965   */\n  tag_63\n  jumpi\n    /* \"#utility.yul\":2884:2963   */\n  tag_64\n  tag_17\n  jump\t// in\ntag_64:\n    /* \"#utility.yul\":2843:2965   */\ntag_63:\n    /* \"#utility.yul\":2994:3000   */\n  dup2\n    /* \"#utility.yul\":2988:3001   */\n  mload\n    /* \"#utility.yul\":3019:3124   */\n  tag_65\n    /* \"#utility.yul\":3120:3123   */\n  dup5\n    /* \"#utility.yul\":3112:3118   */\n  dup3\n    /* \"#utility.yul\":3105:3109   */\n  0x20\n    /* \"#utility.yul\":3097:3103   */\n  dup7\n    /* \"#utility.yul\":3093:3110   */\n  add\n    /* \"#utility.yul\":3019:3124   */\n  tag_27\n  jump\t// in\ntag_65:\n    /* \"#utility.yul\":3010:3124   */\n  swap2\n  pop\n    /* \"#utility.yul\":2833:3130   */\n  pop\n    /* \"#utility.yul\":2745:3130   */\n  swap3\n  swap2\n  pop\n  pop\n  jump\t// out\n    /* \"#utility.yul\":3136:3690   */\ntag_3:\n    /* \"#utility.yul\":3231:3237   */\n  0x00\n    /* \"#utility.yul\":3280:3282   */\n  0x20\n    /* \"#utility.yul\":3268:3277   */\n  dup3\n    /* \"#utility.yul\":3259:3266   */\n  dup5\n    /* \"#utility.yul\":3255:3278   */\n  sub\n    /* \"#utility.yul\":3251:3283   */\n  slt\n    /* \"#utility.yul\":3248:3367   */\n  iszero\n  tag_67\n  jumpi\n    /* \"#utility.yul\":3286:3365   */\n  tag_68\n  tag_15\n  jump\t// in\ntag_68:\n    /* \"#utility.yul\":3248:3367   */\ntag_67:\n    /* \"#utility.yul\":3427:3428   */\n  0x00\n    /* \"#utility.yul\":3416:3425   */\n  dup3\n    /* \"#utility.yul\":3412:3429   */\n  add\n    /* \"#utility.yul\":3406:3430   */\n  mload\n    /* \"#utility.yul\":3457:3475   */\n  0xffffffffffffffff\n    /* \"#utility.yul\":3449:3455   */\n  dup2\n    /* \"#utility.yul\":3446:3476   */\n  gt\n    /* \"#utility.yul\":3443:3560   */\n  iszero\n  tag_69\n  jumpi\n    /* \"#utility.yul\":3479:3558   */\n  tag_70\n  tag_16\n  jump\t// in\ntag_70:\n    /* \"#utility.yul\":3443:3560   */\ntag_69:\n    /* \"#utility.yul\":3584:3673   */\n  tag_71\n    /* \"#utility.yul\":3665:3672   */\n  dup5\n    /* \"#utility.yul\":3656:3662   */\n  dup3\n    /* \"#utility.yul\":3645:3654   */\n  dup6\n    /* \"#utility.yul\":3641:3663   */\n  add\n    /* \"#utility.yul\":3584:3673   */\n  tag_28\n  jump\t// in\ntag_71:\n    /* \"#utility.yul\":3574:3673   */\n  swap2\n  pop\n    /* \"#utility.yul\":3377:3683   */\n  pop\n    /* \"#utility.yul\":3136:3690   */\n  swap3\n  swap2\n  pop\n  pop\n  jump\t// out\n    /* \"#utility.yul\":3696:3876   */\ntag_11:\n    /* \"#utility.yul\":3744:3821   */\n  0x4e487b7100000000000000000000000000000000000000000000000000000000\n    /* \"#utility.yul\":3741:3742   */\n  0x00\n    /* \"#utility.yul\":3734:3822   */\n  mstore\n    /* \"#utility.yul\":3841:3845   */\n  0x32\n    /* \"#utility.yul\":3838:3839   */\n  0x04\n    /* \"#utility.yul\":3831:3846   */\n  mstore\n    /* \"#utility.yul\":3865:3869   */\n  0x24\n    /* \"#utility.yul\":3862:3863   */\n  0x00\n    /* \"#utility.yul\":3855:3870   */\n  revert\n    /* \"Voting.sol\":60:6887  contract Voting{... */\ntag_13:\n  dataSize(sub_0)\n  dup1\n  dataOffset(sub_0)\n  0x00\n  codecopy\n  0x00\n  return\nstop\n\nsub_0: assembly {\n        /* \"Voting.sol\":60:6887  contract Voting{... */\n      mstore(0x40, 0x80)\n      callvalue\n      dup1\n      iszero\n      tag_1\n      jumpi\n      revert(0x00, 0x00)\n    tag_1:\n      pop\n      jumpi(tag_2, lt(calldatasize, 0x04))\n      shr(0xe0, calldataload(0x00))\n      dup1\n      0x9e7e2b09\n      gt\n      tag_10\n      jumpi\n      dup1\n      0x9e7e2b09\n      eq\n      tag_6\n      jumpi\n      dup1\n      0xc7f758a8\n      eq\n      tag_7\n      jumpi\n      dup1\n      0xd4f50f98\n      eq\n      tag_8\n      jumpi\n      dup1\n      0xe2ba53f0\n      eq\n      tag_9\n      jumpi\n      jump(tag_2)\n    tag_10:\n      dup1\n      0x0121b93f\n      eq\n      tag_3\n      jumpi\n      dup1\n      0x5c19a95c\n      eq\n      tag_4\n      jumpi\n      dup1\n      0x9e7b8d61\n      eq\n      tag_5\n      jumpi\n    tag_2:\n      revert(0x00, 0x00)\n        /* \"Voting.sol\":3728:4521  function vote(uint256 _vote) public{ // allows a voter to vote... */\n    tag_3:\n      tag_11\n      0x04\n      dup1\n      calldatasize\n      sub\n      dup2\n      add\n      swap1\n      tag_12\n      swap2\n      swap1\n      tag_13\n      jump\t// in\n    tag_12:\n      tag_14\n      jump\t// in\n    tag_11:\n      stop\n        /* \"Voting.sol\":2110:3720  function delegate(address _delegated) public{ // delegates a vote to a person ... */\n    tag_4:\n      tag_15\n      0x04\n      dup1\n      calldatasize\n      sub\n      dup2\n      add\n      swap1\n      tag_16\n      swap2\n      swap1\n      tag_17\n      jump\t// in\n    tag_16:\n      tag_18\n      jump\t// in\n    tag_15:\n      stop\n        /* \"Voting.sol\":1658:2102  function giveRightToVote(address _voter) public onlyChairPerson{ // gives votes to a certain voter... */\n    tag_5:\n      tag_19\n      0x04\n      dup1\n      calldatasize\n      sub\n      dup2\n      add\n      swap1\n      tag_20\n      swap2\n      swap1\n      tag_17\n      jump\t// in\n    tag_20:\n      tag_21\n      jump\t// in\n    tag_19:\n      stop\n        /* \"Voting.sol\":6361:6454  function getChairPerson() public view returns(address) {... */\n    tag_6:\n      tag_22\n      tag_23\n      jump\t// in\n    tag_22:\n      mload(0x40)\n      tag_24\n      swap2\n      swap1\n      tag_25\n      jump\t// in\n    tag_24:\n      mload(0x40)\n      dup1\n      swap2\n      sub\n      swap1\n      return\n        /* \"Voting.sol\":6609:6739  function getProposal(uint _proposalIndex) public view returns(Proposal memory){... */\n    tag_7:\n      tag_26\n      0x04\n      dup1\n      calldatasize\n      sub\n      dup2\n      add\n      swap1\n      tag_27\n      swap2\n      swap1\n      tag_13\n      jump\t// in\n    tag_27:\n      tag_28\n      jump\t// in\n    tag_26:\n      mload(0x40)\n      tag_29\n      swap2\n      swap1\n      tag_30\n      jump\t// in\n    tag_29:\n      mload(0x40)\n      dup1\n      swap2\n      sub\n      swap1\n      return\n        /* \"Voting.sol\":6462:6601  function getVoter(address _voterAddress) public onlyChairPerson view returns(Voter memory) {... */\n    tag_8:\n      tag_31\n      0x04\n      dup1\n      calldatasize\n      sub\n      dup2\n      add\n      swap1\n      tag_32\n      swap2\n      swap1\n      tag_17\n      jump\t// in\n    tag_32:\n      tag_33\n      jump\t// in\n    tag_31:\n      mload(0x40)\n      tag_34\n      swap2\n      swap1\n      tag_35\n      jump\t// in\n    tag_34:\n      mload(0x40)\n      dup1\n      swap2\n      sub\n      swap1\n      return\n        /* \"Voting.sol\":5270:5556  function winnerName() public view returns(bytes32 WinnerName){... */\n    tag_9:\n      tag_36\n      tag_37\n      jump\t// in\n    tag_36:\n      mload(0x40)\n      tag_38\n      swap2\n      swap1\n      tag_39\n      jump\t// in\n    tag_38:\n      mload(0x40)\n      dup1\n      swap2\n      sub\n      swap1\n      return\n        /* \"Voting.sol\":3728:4521  function vote(uint256 _vote) public{ // allows a voter to vote... */\n    tag_14:\n        /* \"Voting.sol\":3836:3837  0 */\n      0x00\n        /* \"Voting.sol\":3808:3814  voters */\n      0x01\n        /* \"Voting.sol\":3808:3826  voters[msg.sender] */\n      0x00\n        /* \"Voting.sol\":3815:3825  msg.sender */\n      caller\n        /* \"Voting.sol\":3808:3826  voters[msg.sender] */\n      0xffffffffffffffffffffffffffffffffffffffff\n      and\n      0xffffffffffffffffffffffffffffffffffffffff\n      and\n      dup2\n      mstore\n      0x20\n      add\n      swap1\n      dup2\n      mstore\n      0x20\n      add\n      0x00\n      keccak256\n        /* \"Voting.sol\":3808:3833  voters[msg.sender].weight */\n      0x00\n      add\n      sload\n        /* \"Voting.sol\":3808:3837  voters[msg.sender].weight > 0 */\n      gt\n        /* \"Voting.sol\":3800:3864  require(voters[msg.sender].weight > 0, voting__noVotingRights()) */\n      tag_41\n      jumpi\n      mload(0x40)\n      0x04e71fda00000000000000000000000000000000000000000000000000000000\n      dup2\n      mstore\n      0x04\n      add\n      mload(0x40)\n      dup1\n      swap2\n      sub\n      swap1\n      revert\n    tag_41:\n        /* \"Voting.sol\":3936:3942  voters */\n      0x01\n        /* \"Voting.sol\":3936:3954  voters[msg.sender] */\n      0x00\n        /* \"Voting.sol\":3943:3953  msg.sender */\n      caller\n        /* \"Voting.sol\":3936:3954  voters[msg.sender] */\n      0xffffffffffffffffffffffffffffffffffffffff\n      and\n      0xffffffffffffffffffffffffffffffffffffffff\n      and\n      dup2\n      mstore\n      0x20\n      add\n      swap1\n      dup2\n      mstore\n      0x20\n      add\n      0x00\n      keccak256\n        /* \"Voting.sol\":3936:3960  voters[msg.sender].voted */\n      0x01\n      add\n      0x00\n      swap1\n      sload\n      swap1\n      0x0100\n      exp\n      swap1\n      div\n      0xff\n      and\n        /* \"Voting.sol\":3935:3960  !voters[msg.sender].voted */\n      iszero\n        /* \"Voting.sol\":3927:3985  require(!voters[msg.sender].voted, voting__alreadyVoted()) */\n      tag_42\n      jumpi\n      mload(0x40)\n      0x715a868600000000000000000000000000000000000000000000000000000000\n      dup2\n      mstore\n      0x04\n      add\n      mload(0x40)\n      dup1\n      swap2\n      sub\n      swap1\n      revert\n    tag_42:\n        /* \"Voting.sol\":4063:4072  proposals */\n      0x02\n        /* \"Voting.sol\":4063:4079  proposals.length */\n      dup1\n      sload\n      swap1\n      pop\n        /* \"Voting.sol\":4055:4060  _vote */\n      dup2\n        /* \"Voting.sol\":4055:4079  _vote < proposals.length */\n      lt\n        /* \"Voting.sol\":4047:4108  require(_vote < proposals.length, voting__proposalNotFound()) */\n      tag_43\n      jumpi\n      mload(0x40)\n      0x06e1831200000000000000000000000000000000000000000000000000000000\n      dup2\n      mstore\n      0x04\n      add\n      mload(0x40)\n      dup1\n      swap2\n      sub\n      swap1\n      revert\n    tag_43:\n        /* \"Voting.sol\":4199:4204  _vote */\n      dup1\n        /* \"Voting.sol\":4173:4179  voters */\n      0x01\n        /* \"Voting.sol\":4173:4191  voters[msg.sender] */\n      0x00\n        /* \"Voting.sol\":4180:4190  msg.sender */\n      caller\n        /* \"Voting.sol\":4173:4191  voters[msg.sender] */\n      0xffffffffffffffffffffffffffffffffffffffff\n      and\n      0xffffffffffffffffffffffffffffffffffffffff\n      and\n      dup2\n      mstore\n      0x20\n      add\n      swap1\n      dup2\n      mstore\n      0x20\n      add\n      0x00\n      keccak256\n        /* \"Voting.sol\":4173:4196  voters[msg.sender].vote */\n      0x02\n      add\n        /* \"Voting.sol\":4173:4204  voters[msg.sender].vote = _vote */\n      dup2\n      swap1\n      sstore\n      pop\n        /* \"Voting.sol\":4300:4306  voters */\n      0x01\n        /* \"Voting.sol\":4300:4318  voters[msg.sender] */\n      0x00\n        /* \"Voting.sol\":4307:4317  msg.sender */\n      caller\n        /* \"Voting.sol\":4300:4318  voters[msg.sender] */\n      0xffffffffffffffffffffffffffffffffffffffff\n      and\n      0xffffffffffffffffffffffffffffffffffffffff\n      and\n      dup2\n      mstore\n      0x20\n      add\n      swap1\n      dup2\n      mstore\n      0x20\n      add\n      0x00\n      keccak256\n        /* \"Voting.sol\":4300:4325  voters[msg.sender].weight */\n      0x00\n      add\n      sload\n        /* \"Voting.sol\":4270:4279  proposals */\n      0x02\n        /* \"Voting.sol\":4280:4285  _vote */\n      dup3\n        /* \"Voting.sol\":4270:4286  proposals[_vote] */\n      dup2\n      sload\n      dup2\n      lt\n      tag_44\n      jumpi\n      tag_45\n      tag_46\n      jump\t// in\n    tag_45:\n    tag_44:\n      swap1\n      0x00\n      mstore\n      keccak256(0x00, 0x20)\n      swap1\n      0x02\n      mul\n      add\n        /* \"Voting.sol\":4270:4296  proposals[_vote].voteCount */\n      0x01\n      add\n      0x00\n        /* \"Voting.sol\":4270:4325  proposals[_vote].voteCount += voters[msg.sender].weight */\n      dup3\n      dup3\n      sload\n      tag_48\n      swap2\n      swap1\n      tag_49\n      jump\t// in\n    tag_48:\n      swap3\n      pop\n      pop\n      dup2\n      swap1\n      sstore\n      pop\n        /* \"Voting.sol\":4425:4429  true */\n      0x01\n        /* \"Voting.sol\":4398:4404  voters */\n      dup1\n        /* \"Voting.sol\":4398:4416  voters[msg.sender] */\n      0x00\n        /* \"Voting.sol\":4405:4415  msg.sender */\n      caller\n        /* \"Voting.sol\":4398:4416  voters[msg.sender] */\n      0xffffffffffffffffffffffffffffffffffffffff\n      and\n      0xffffffffffffffffffffffffffffffffffffffff\n      and\n      dup2\n      mstore\n      0x20\n      add\n      swap1\n      dup2\n      mstore\n      0x20\n      add\n      0x00\n      keccak256\n        /* \"Voting.sol\":4398:4422  voters[msg.sender].voted */\n      0x01\n      add\n      0x00\n        /* \"Voting.sol\":4398:4429  voters[msg.sender].voted = true */\n      0x0100\n      exp\n      dup2\n      sload\n      dup2\n      0xff\n      mul\n      not\n      and\n      swap1\n      dup4\n      iszero\n      iszero\n      mul\n      or\n      swap1\n      sstore\n      pop\n        /* \"Voting.sol\":3728:4521  function vote(uint256 _vote) public{ // allows a voter to vote... */\n      pop\n      jump\t// out\n        /* \"Voting.sol\":2110:3720  function delegate(address _delegated) public{ // delegates a vote to a person ... */\n    tag_18:\n        /* \"Voting.sol\":2234:2235  0 */\n      0x00\n        /* \"Voting.sol\":2206:2212  voters */\n      0x01\n        /* \"Voting.sol\":2206:2224  voters[msg.sender] */\n      0x00\n        /* \"Voting.sol\":2213:2223  msg.sender */\n      caller\n        /* \"Voting.sol\":2206:2224  voters[msg.sender] */\n      0xffffffffffffffffffffffffffffffffffffffff\n      and\n      0xffffffffffffffffffffffffffffffffffffffff\n      and\n      dup2\n      mstore\n      0x20\n      add\n      swap1\n      dup2\n      mstore\n      0x20\n      add\n      0x00\n      keccak256\n        /* \"Voting.sol\":2206:2231  voters[msg.sender].weight */\n      0x00\n      add\n      sload\n        /* \"Voting.sol\":2206:2235  voters[msg.sender].weight > 0 */\n      gt\n        /* \"Voting.sol\":2198:2262  require(voters[msg.sender].weight > 0, voting__noVotingRights()) */\n      tag_51\n      jumpi\n      mload(0x40)\n      0x04e71fda00000000000000000000000000000000000000000000000000000000\n      dup2\n      mstore\n      0x04\n      add\n      mload(0x40)\n      dup1\n      swap2\n      sub\n      swap1\n      revert\n    tag_51:\n        /* \"Voting.sol\":2336:2342  voters */\n      0x01\n        /* \"Voting.sol\":2336:2354  voters[msg.sender] */\n      0x00\n        /* \"Voting.sol\":2343:2353  msg.sender */\n      caller\n        /* \"Voting.sol\":2336:2354  voters[msg.sender] */\n      0xffffffffffffffffffffffffffffffffffffffff\n      and\n      0xffffffffffffffffffffffffffffffffffffffff\n      and\n      dup2\n      mstore\n      0x20\n      add\n      swap1\n      dup2\n      mstore\n      0x20\n      add\n      0x00\n      keccak256\n        /* \"Voting.sol\":2336:2360  voters[msg.sender].voted */\n      0x01\n      add\n      0x00\n      swap1\n      sload\n      swap1\n      0x0100\n      exp\n      swap1\n      div\n      0xff\n      and\n        /* \"Voting.sol\":2335:2360  !voters[msg.sender].voted */\n      iszero\n        /* \"Voting.sol\":2327:2385  require(!voters[msg.sender].voted, voting__alreadyVoted()) */\n      tag_52\n      jumpi\n      mload(0x40)\n      0x715a868600000000000000000000000000000000000000000000000000000000\n      dup2\n      mstore\n      0x04\n      add\n      mload(0x40)\n      dup1\n      swap2\n      sub\n      swap1\n      revert\n    tag_52:\n        /* \"Voting.sol\":2472:2482  msg.sender */\n      caller\n        /* \"Voting.sol\":2458:2482  _delegated != msg.sender */\n      0xffffffffffffffffffffffffffffffffffffffff\n      and\n        /* \"Voting.sol\":2458:2468  _delegated */\n      dup2\n        /* \"Voting.sol\":2458:2482  _delegated != msg.sender */\n      0xffffffffffffffffffffffffffffffffffffffff\n      and\n      sub\n        /* \"Voting.sol\":2450:2516  require(_delegated != msg.sender, voting__cannotDelegateOneself()) */\n      tag_53\n      jumpi\n      mload(0x40)\n      0x1c073e4800000000000000000000000000000000000000000000000000000000\n      dup2\n      mstore\n      0x04\n      add\n      mload(0x40)\n      dup1\n      swap2\n      sub\n      swap1\n      revert\n    tag_53:\n        /* \"Voting.sol\":2633:3095  while(voters[_delegated].delegate != address(0)){... */\n    tag_54:\n        /* \"Voting.sol\":2678:2679  0 */\n      0x00\n        /* \"Voting.sol\":2639:2680  voters[_delegated].delegate != address(0) */\n      0xffffffffffffffffffffffffffffffffffffffff\n      and\n        /* \"Voting.sol\":2639:2645  voters */\n      0x01\n        /* \"Voting.sol\":2639:2657  voters[_delegated] */\n      0x00\n        /* \"Voting.sol\":2646:2656  _delegated */\n      dup4\n        /* \"Voting.sol\":2639:2657  voters[_delegated] */\n      0xffffffffffffffffffffffffffffffffffffffff\n      and\n      0xffffffffffffffffffffffffffffffffffffffff\n      and\n      dup2\n      mstore\n      0x20\n      add\n      swap1\n      dup2\n      mstore\n      0x20\n      add\n      0x00\n      keccak256\n        /* \"Voting.sol\":2639:2666  voters[_delegated].delegate */\n      0x01\n      add\n      0x01\n      swap1\n      sload\n      swap1\n      0x0100\n      exp\n      swap1\n      div\n      0xffffffffffffffffffffffffffffffffffffffff\n      and\n        /* \"Voting.sol\":2639:2680  voters[_delegated].delegate != address(0) */\n      0xffffffffffffffffffffffffffffffffffffffff\n      and\n      eq\n        /* \"Voting.sol\":2633:3095  while(voters[_delegated].delegate != address(0)){... */\n      tag_55\n      jumpi\n        /* \"Voting.sol\":2906:2912  voters */\n      0x01\n        /* \"Voting.sol\":2906:2924  voters[_delegated] */\n      0x00\n        /* \"Voting.sol\":2913:2923  _delegated */\n      dup3\n        /* \"Voting.sol\":2906:2924  voters[_delegated] */\n      0xffffffffffffffffffffffffffffffffffffffff\n      and\n      0xffffffffffffffffffffffffffffffffffffffff\n      and\n      dup2\n      mstore\n      0x20\n      add\n      swap1\n      dup2\n      mstore\n      0x20\n      add\n      0x00\n      keccak256\n        /* \"Voting.sol\":2906:2933  voters[_delegated].delegate */\n      0x01\n      add\n      0x01\n      swap1\n      sload\n      swap1\n      0x0100\n      exp\n      swap1\n      div\n      0xffffffffffffffffffffffffffffffffffffffff\n      and\n        /* \"Voting.sol\":2893:2933  _delegated = voters[_delegated].delegate */\n      swap1\n      pop\n        /* \"Voting.sol\":3043:3053  _delegated */\n      dup1\n        /* \"Voting.sol\":3029:3053  msg.sender != _delegated */\n      0xffffffffffffffffffffffffffffffffffffffff\n      and\n        /* \"Voting.sol\":3029:3039  msg.sender */\n      caller\n        /* \"Voting.sol\":3029:3053  msg.sender != _delegated */\n      0xffffffffffffffffffffffffffffffffffffffff\n      and\n      sub\n        /* \"Voting.sol\":3021:3082  require(msg.sender != _delegated, voting__loopInDelegation()) */\n      tag_56\n      jumpi\n      mload(0x40)\n      0x5038b3d100000000000000000000000000000000000000000000000000000000\n      dup2\n      mstore\n      0x04\n      add\n      mload(0x40)\n      dup1\n      swap2\n      sub\n      swap1\n      revert\n    tag_56:\n        /* \"Voting.sol\":2633:3095  while(voters[_delegated].delegate != address(0)){... */\n      jump(tag_54)\n    tag_55:\n        /* \"Voting.sol\":3134:3138  true */\n      0x01\n        /* \"Voting.sol\":3107:3113  voters */\n      dup1\n        /* \"Voting.sol\":3107:3125  voters[msg.sender] */\n      0x00\n        /* \"Voting.sol\":3114:3124  msg.sender */\n      caller\n        /* \"Voting.sol\":3107:3125  voters[msg.sender] */\n      0xffffffffffffffffffffffffffffffffffffffff\n      and\n      0xffffffffffffffffffffffffffffffffffffffff\n      and\n      dup2\n      mstore\n      0x20\n      add\n      swap1\n      dup2\n      mstore\n      0x20\n      add\n      0x00\n      keccak256\n        /* \"Voting.sol\":3107:3131  voters[msg.sender].voted */\n      0x01\n      add\n      0x00\n        /* \"Voting.sol\":3107:3138  voters[msg.sender].voted = true */\n      0x0100\n      exp\n      dup2\n      sload\n      dup2\n      0xff\n      mul\n      not\n      and\n      swap1\n      dup4\n      iszero\n      iszero\n      mul\n      or\n      swap1\n      sstore\n      pop\n        /* \"Voting.sol\":3221:3231  _delegated */\n      dup1\n        /* \"Voting.sol\":3191:3197  voters */\n      0x01\n        /* \"Voting.sol\":3191:3209  voters[msg.sender] */\n      0x00\n        /* \"Voting.sol\":3198:3208  msg.sender */\n      caller\n        /* \"Voting.sol\":3191:3209  voters[msg.sender] */\n      0xffffffffffffffffffffffffffffffffffffffff\n      and\n      0xffffffffffffffffffffffffffffffffffffffff\n      and\n      dup2\n      mstore\n      0x20\n      add\n      swap1\n      dup2\n      mstore\n      0x20\n      add\n      0x00\n      keccak256\n        /* \"Voting.sol\":3191:3218  voters[msg.sender].delegate */\n      0x01\n      add\n      0x01\n        /* \"Voting.sol\":3191:3231  voters[msg.sender].delegate = _delegated */\n      0x0100\n      exp\n      dup2\n      sload\n      dup2\n      0xffffffffffffffffffffffffffffffffffffffff\n      mul\n      not\n      and\n      swap1\n      dup4\n      0xffffffffffffffffffffffffffffffffffffffff\n      and\n      mul\n      or\n      swap1\n      sstore\n      pop\n        /* \"Voting.sol\":3278:3284  voters */\n      0x01\n        /* \"Voting.sol\":3278:3296  voters[_delegated] */\n      0x00\n        /* \"Voting.sol\":3285:3295  _delegated */\n      dup3\n        /* \"Voting.sol\":3278:3296  voters[_delegated] */\n      0xffffffffffffffffffffffffffffffffffffffff\n      and\n      0xffffffffffffffffffffffffffffffffffffffff\n      and\n      dup2\n      mstore\n      0x20\n      add\n      swap1\n      dup2\n      mstore\n      0x20\n      add\n      0x00\n      keccak256\n        /* \"Voting.sol\":3278:3302  voters[_delegated].voted */\n      0x01\n      add\n      0x00\n      swap1\n      sload\n      swap1\n      0x0100\n      exp\n      swap1\n      div\n      0xff\n      and\n        /* \"Voting.sol\":3275:3713  if(voters[_delegated].voted){... */\n      iszero\n      tag_57\n      jumpi\n        /* \"Voting.sol\":3481:3487  voters */\n      0x01\n        /* \"Voting.sol\":3481:3499  voters[msg.sender] */\n      0x00\n        /* \"Voting.sol\":3488:3498  msg.sender */\n      caller\n        /* \"Voting.sol\":3481:3499  voters[msg.sender] */\n      0xffffffffffffffffffffffffffffffffffffffff\n      and\n      0xffffffffffffffffffffffffffffffffffffffff\n      and\n      dup2\n      mstore\n      0x20\n      add\n      swap1\n      dup2\n      mstore\n      0x20\n      add\n      0x00\n      keccak256\n        /* \"Voting.sol\":3481:3506  voters[msg.sender].weight */\n      0x00\n      add\n      sload\n        /* \"Voting.sol\":3433:3442  proposals */\n      0x02\n        /* \"Voting.sol\":3443:3449  voters */\n      0x01\n        /* \"Voting.sol\":3443:3461  voters[_delegated] */\n      0x00\n        /* \"Voting.sol\":3450:3460  _delegated */\n      dup5\n        /* \"Voting.sol\":3443:3461  voters[_delegated] */\n      0xffffffffffffffffffffffffffffffffffffffff\n      and\n      0xffffffffffffffffffffffffffffffffffffffff\n      and\n      dup2\n      mstore\n      0x20\n      add\n      swap1\n      dup2\n      mstore\n      0x20\n      add\n      0x00\n      keccak256\n        /* \"Voting.sol\":3443:3466  voters[_delegated].vote */\n      0x02\n      add\n      sload\n        /* \"Voting.sol\":3433:3467  proposals[voters[_delegated].vote] */\n      dup2\n      sload\n      dup2\n      lt\n      tag_58\n      jumpi\n      tag_59\n      tag_46\n      jump\t// in\n    tag_59:\n    tag_58:\n      swap1\n      0x00\n      mstore\n      keccak256(0x00, 0x20)\n      swap1\n      0x02\n      mul\n      add\n        /* \"Voting.sol\":3433:3477  proposals[voters[_delegated].vote].voteCount */\n      0x01\n      add\n      0x00\n        /* \"Voting.sol\":3433:3506  proposals[voters[_delegated].vote].voteCount += voters[msg.sender].weight */\n      dup3\n      dup3\n      sload\n      tag_61\n      swap2\n      swap1\n      tag_49\n      jump\t// in\n    tag_61:\n      swap3\n      pop\n      pop\n      dup2\n      swap1\n      sstore\n      pop\n        /* \"Voting.sol\":3275:3713  if(voters[_delegated].voted){... */\n      jump(tag_62)\n    tag_57:\n        /* \"Voting.sol\":3676:3682  voters */\n      0x01\n        /* \"Voting.sol\":3676:3694  voters[msg.sender] */\n      0x00\n        /* \"Voting.sol\":3683:3693  msg.sender */\n      caller\n        /* \"Voting.sol\":3676:3694  voters[msg.sender] */\n      0xffffffffffffffffffffffffffffffffffffffff\n      and\n      0xffffffffffffffffffffffffffffffffffffffff\n      and\n      dup2\n      mstore\n      0x20\n      add\n      swap1\n      dup2\n      mstore\n      0x20\n      add\n      0x00\n      keccak256\n        /* \"Voting.sol\":3676:3701  voters[msg.sender].weight */\n      0x00\n      add\n      sload\n        /* \"Voting.sol\":3647:3653  voters */\n      0x01\n        /* \"Voting.sol\":3647:3665  voters[_delegated] */\n      0x00\n        /* \"Voting.sol\":3654:3664  _delegated */\n      dup4\n        /* \"Voting.sol\":3647:3665  voters[_delegated] */\n      0xffffffffffffffffffffffffffffffffffffffff\n      and\n      0xffffffffffffffffffffffffffffffffffffffff\n      and\n      dup2\n      mstore\n      0x20\n      add\n      swap1\n      dup2\n      mstore\n      0x20\n      add\n      0x00\n      keccak256\n        /* \"Voting.sol\":3647:3672  voters[_delegated].weight */\n      0x00\n      add\n      0x00\n        /* \"Voting.sol\":3647:3701  voters[_delegated].weight += voters[msg.sender].weight */\n      dup3\n      dup3\n      sload\n      tag_63\n      swap2\n      swap1\n      tag_49\n      jump\t// in\n    tag_63:\n      swap3\n      pop\n      pop\n      dup2\n      swap1\n      sstore\n      pop\n        /* \"Voting.sol\":3275:3713  if(voters[_delegated].voted){... */\n    tag_62:\n        /* \"Voting.sol\":2110:3720  function delegate(address _delegated) public{ // delegates a vote to a person ... */\n      pop\n      jump\t// out\n        /* \"Voting.sol\":1658:2102  function giveRightToVote(address _voter) public onlyChairPerson{ // gives votes to a certain voter... */\n    tag_21:\n        /* \"Voting.sol\":6825:6836  chairPerson */\n      0x00\n      0x00\n      swap1\n      sload\n      swap1\n      0x0100\n      exp\n      swap1\n      div\n      0xffffffffffffffffffffffffffffffffffffffff\n      and\n        /* \"Voting.sol\":6811:6836  msg.sender == chairPerson */\n      0xffffffffffffffffffffffffffffffffffffffff\n      and\n        /* \"Voting.sol\":6811:6821  msg.sender */\n      caller\n        /* \"Voting.sol\":6811:6836  msg.sender == chairPerson */\n      0xffffffffffffffffffffffffffffffffffffffff\n      and\n      eq\n        /* \"Voting.sol\":6803:6864  require(msg.sender == chairPerson, voting__onlyChairPerson()) */\n      tag_65\n      jumpi\n      mload(0x40)\n      0x0571149200000000000000000000000000000000000000000000000000000000\n      dup2\n      mstore\n      0x04\n      add\n      mload(0x40)\n      dup1\n      swap2\n      sub\n      swap1\n      revert\n    tag_65:\n        /* \"Voting.sol\":1775:1781  voters */\n      0x01\n        /* \"Voting.sol\":1775:1789  voters[_voter] */\n      0x00\n        /* \"Voting.sol\":1782:1788  _voter */\n      dup3\n        /* \"Voting.sol\":1775:1789  voters[_voter] */\n      0xffffffffffffffffffffffffffffffffffffffff\n      and\n      0xffffffffffffffffffffffffffffffffffffffff\n      and\n      dup2\n      mstore\n      0x20\n      add\n      swap1\n      dup2\n      mstore\n      0x20\n      add\n      0x00\n      keccak256\n        /* \"Voting.sol\":1775:1795  voters[_voter].voted */\n      0x01\n      add\n      0x00\n      swap1\n      sload\n      swap1\n      0x0100\n      exp\n      swap1\n      div\n      0xff\n      and\n        /* \"Voting.sol\":1774:1795  !voters[_voter].voted */\n      iszero\n        /* \"Voting.sol\":1766:1820  require(!voters[_voter].voted, voting__alreadyVoted()) */\n      tag_67\n      jumpi\n      mload(0x40)\n      0x715a868600000000000000000000000000000000000000000000000000000000\n      dup2\n      mstore\n      0x04\n      add\n      mload(0x40)\n      dup1\n      swap2\n      sub\n      swap1\n      revert\n    tag_67:\n        /* \"Voting.sol\":1912:1913  0 */\n      0x00\n        /* \"Voting.sol\":1887:1893  voters */\n      0x01\n        /* \"Voting.sol\":1887:1901  voters[_voter] */\n      0x00\n        /* \"Voting.sol\":1894:1900  _voter */\n      dup4\n        /* \"Voting.sol\":1887:1901  voters[_voter] */\n      0xffffffffffffffffffffffffffffffffffffffff\n      and\n      0xffffffffffffffffffffffffffffffffffffffff\n      and\n      dup2\n      mstore\n      0x20\n      add\n      swap1\n      dup2\n      mstore\n      0x20\n      add\n      0x00\n      keccak256\n        /* \"Voting.sol\":1887:1908  voters[_voter].weight */\n      0x00\n      add\n      sload\n        /* \"Voting.sol\":1887:1913  voters[_voter].weight == 0 */\n      eq\n        /* \"Voting.sol\":1879:1950  require(voters[_voter].weight == 0, voting__alreadyGivenVotingRights()) */\n      tag_68\n      jumpi\n      mload(0x40)\n      0xd98e98ce00000000000000000000000000000000000000000000000000000000\n      dup2\n      mstore\n      0x04\n      add\n      mload(0x40)\n      dup1\n      swap2\n      sub\n      swap1\n      revert\n    tag_68:\n        /* \"Voting.sol\":2048:2049  1 */\n      0x01\n        /* \"Voting.sol\":2024:2030  voters */\n      dup1\n        /* \"Voting.sol\":2024:2038  voters[_voter] */\n      0x00\n        /* \"Voting.sol\":2031:2037  _voter */\n      dup4\n        /* \"Voting.sol\":2024:2038  voters[_voter] */\n      0xffffffffffffffffffffffffffffffffffffffff\n      and\n      0xffffffffffffffffffffffffffffffffffffffff\n      and\n      dup2\n      mstore\n      0x20\n      add\n      swap1\n      dup2\n      mstore\n      0x20\n      add\n      0x00\n      keccak256\n        /* \"Voting.sol\":2024:2045  voters[_voter].weight */\n      0x00\n      add\n        /* \"Voting.sol\":2024:2049  voters[_voter].weight = 1 */\n      dup2\n      swap1\n      sstore\n      pop\n        /* \"Voting.sol\":1658:2102  function giveRightToVote(address _voter) public onlyChairPerson{ // gives votes to a certain voter... */\n      pop\n      jump\t// out\n        /* \"Voting.sol\":6361:6454  function getChairPerson() public view returns(address) {... */\n    tag_23:\n        /* \"Voting.sol\":6407:6414  address */\n      0x00\n        /* \"Voting.sol\":6434:6445  chairPerson */\n      0x00\n      0x00\n      swap1\n      sload\n      swap1\n      0x0100\n      exp\n      swap1\n      div\n      0xffffffffffffffffffffffffffffffffffffffff\n      and\n        /* \"Voting.sol\":6427:6445  return chairPerson */\n      swap1\n      pop\n        /* \"Voting.sol\":6361:6454  function getChairPerson() public view returns(address) {... */\n      swap1\n      jump\t// out\n        /* \"Voting.sol\":6609:6739  function getProposal(uint _proposalIndex) public view returns(Proposal memory){... */\n    tag_28:\n        /* \"Voting.sol\":6671:6686  Proposal memory */\n      tag_70\n      tag_71\n      jump\t// in\n    tag_70:\n        /* \"Voting.sol\":6705:6714  proposals */\n      0x02\n        /* \"Voting.sol\":6715:6729  _proposalIndex */\n      dup3\n        /* \"Voting.sol\":6705:6730  proposals[_proposalIndex] */\n      dup2\n      sload\n      dup2\n      lt\n      tag_73\n      jumpi\n      tag_74\n      tag_46\n      jump\t// in\n    tag_74:\n    tag_73:\n      swap1\n      0x00\n      mstore\n      keccak256(0x00, 0x20)\n      swap1\n      0x02\n      mul\n      add\n        /* \"Voting.sol\":6698:6730  return proposals[_proposalIndex] */\n      mload(0x40)\n      dup1\n      0x40\n      add\n      0x40\n      mstore\n      swap1\n      dup2\n      0x00\n      dup3\n      add\n      sload\n      dup2\n      mstore\n      0x20\n      add\n      0x01\n      dup3\n      add\n      sload\n      dup2\n      mstore\n      pop\n      pop\n      swap1\n      pop\n        /* \"Voting.sol\":6609:6739  function getProposal(uint _proposalIndex) public view returns(Proposal memory){... */\n      swap2\n      swap1\n      pop\n      jump\t// out\n        /* \"Voting.sol\":6462:6601  function getVoter(address _voterAddress) public onlyChairPerson view returns(Voter memory) {... */\n    tag_33:\n        /* \"Voting.sol\":6539:6551  Voter memory */\n      tag_76\n      tag_77\n      jump\t// in\n    tag_76:\n        /* \"Voting.sol\":6825:6836  chairPerson */\n      0x00\n      0x00\n      swap1\n      sload\n      swap1\n      0x0100\n      exp\n      swap1\n      div\n      0xffffffffffffffffffffffffffffffffffffffff\n      and\n        /* \"Voting.sol\":6811:6836  msg.sender == chairPerson */\n      0xffffffffffffffffffffffffffffffffffffffff\n      and\n        /* \"Voting.sol\":6811:6821  msg.sender */\n      caller\n        /* \"Voting.sol\":6811:6836  msg.sender == chairPerson */\n      0xffffffffffffffffffffffffffffffffffffffff\n      and\n      eq\n        /* \"Voting.sol\":6803:6864  require(msg.sender == chairPerson, voting__onlyChairPerson()) */\n      tag_79\n      jumpi\n      mload(0x40)\n      0x0571149200000000000000000000000000000000000000000000000000000000\n      dup2\n      mstore\n      0x04\n      add\n      mload(0x40)\n      dup1\n      swap2\n      sub\n      swap1\n      revert\n    tag_79:\n        /* \"Voting.sol\":6571:6577  voters */\n      0x01\n        /* \"Voting.sol\":6571:6592  voters[_voterAddress] */\n      0x00\n        /* \"Voting.sol\":6578:6591  _voterAddress */\n      dup4\n        /* \"Voting.sol\":6571:6592  voters[_voterAddress] */\n      0xffffffffffffffffffffffffffffffffffffffff\n      and\n      0xffffffffffffffffffffffffffffffffffffffff\n      and\n      dup2\n      mstore\n      0x20\n      add\n      swap1\n      dup2\n      mstore\n      0x20\n      add\n      0x00\n      keccak256\n        /* \"Voting.sol\":6564:6592  return voters[_voterAddress] */\n      mload(0x40)\n      dup1\n      0x80\n      add\n      0x40\n      mstore\n      swap1\n      dup2\n      0x00\n      dup3\n      add\n      sload\n      dup2\n      mstore\n      0x20\n      add\n      0x01\n      dup3\n      add\n      0x00\n      swap1\n      sload\n      swap1\n      0x0100\n      exp\n      swap1\n      div\n      0xff\n      and\n      iszero\n      iszero\n      iszero\n      iszero\n      dup2\n      mstore\n      0x20\n      add\n      0x01\n      dup3\n      add\n      0x01\n      swap1\n      sload\n      swap1\n      0x0100\n      exp\n      swap1\n      div\n      0xffffffffffffffffffffffffffffffffffffffff\n      and\n      0xffffffffffffffffffffffffffffffffffffffff\n      and\n      0xffffffffffffffffffffffffffffffffffffffff\n      and\n      dup2\n      mstore\n      0x20\n      add\n      0x02\n      dup3\n      add\n      sload\n      dup2\n      mstore\n      pop\n      pop\n      swap1\n      pop\n        /* \"Voting.sol\":6462:6601  function getVoter(address _voterAddress) public onlyChairPerson view returns(Voter memory) {... */\n      swap2\n      swap1\n      pop\n      jump\t// out\n        /* \"Voting.sol\":5270:5556  function winnerName() public view returns(bytes32 WinnerName){... */\n    tag_37:\n        /* \"Voting.sol\":5312:5330  bytes32 WinnerName */\n      0x00\n        /* \"Voting.sol\":5514:5523  proposals */\n      0x02\n        /* \"Voting.sol\":5524:5541  winningProposal() */\n      tag_82\n        /* \"Voting.sol\":5524:5539  winningProposal */\n      tag_83\n        /* \"Voting.sol\":5524:5541  winningProposal() */\n      jump\t// in\n    tag_82:\n        /* \"Voting.sol\":5514:5542  proposals[winningProposal()] */\n      dup2\n      sload\n      dup2\n      lt\n      tag_84\n      jumpi\n      tag_85\n      tag_46\n      jump\t// in\n    tag_85:\n    tag_84:\n      swap1\n      0x00\n      mstore\n      keccak256(0x00, 0x20)\n      swap1\n      0x02\n      mul\n      add\n        /* \"Voting.sol\":5514:5547  proposals[winningProposal()].name */\n      0x00\n      add\n      sload\n        /* \"Voting.sol\":5501:5547  WinnerName = proposals[winningProposal()].name */\n      swap1\n      pop\n        /* \"Voting.sol\":5270:5556  function winnerName() public view returns(bytes32 WinnerName){... */\n      swap1\n      jump\t// out\n        /* \"Voting.sol\":4529:5262  function winningProposal() internal view returns(uint proposalIndex){... */\n    tag_83:\n        /* \"Voting.sol\":4578:4596  uint proposalIndex */\n      0x00\n        /* \"Voting.sol\":4617:4622  tie() */\n      tag_88\n        /* \"Voting.sol\":4617:4620  tie */\n      tag_89\n        /* \"Voting.sol\":4617:4622  tie() */\n      jump\t// in\n    tag_88:\n        /* \"Voting.sol\":4616:4622  !tie() */\n      iszero\n        /* \"Voting.sol\":4608:4646  require(!tie(), voting__thereIsATie()) */\n      tag_90\n      jumpi\n      mload(0x40)\n      0x3474c9a500000000000000000000000000000000000000000000000000000000\n      dup2\n      mstore\n      0x04\n      add\n      mload(0x40)\n      dup1\n      swap2\n      sub\n      swap1\n      revert\n    tag_90:\n        /* \"Voting.sol\":4724:4745  uint highestVoteCount */\n      0x00\n        /* \"Voting.sol\":4748:4749  0 */\n      0x00\n        /* \"Voting.sol\":4724:4749  uint highestVoteCount = 0 */\n      swap1\n      pop\n        /* \"Voting.sol\":4814:4830  uint winnerIndex */\n      0x00\n        /* \"Voting.sol\":4833:4834  0 */\n      0x00\n        /* \"Voting.sol\":4814:4834  uint winnerIndex = 0 */\n      swap1\n      pop\n        /* \"Voting.sol\":4917:4923  uint i */\n      0x00\n        /* \"Voting.sol\":4924:4925  0 */\n      0x00\n        /* \"Voting.sol\":4917:4925  uint i=0 */\n      swap1\n      pop\n        /* \"Voting.sol\":4913:5226  for(uint i=0 ; i < proposals.length; i++){... */\n    tag_91:\n        /* \"Voting.sol\":4932:4941  proposals */\n      0x02\n        /* \"Voting.sol\":4932:4948  proposals.length */\n      dup1\n      sload\n      swap1\n      pop\n        /* \"Voting.sol\":4928:4929  i */\n      dup2\n        /* \"Voting.sol\":4928:4948  i < proposals.length */\n      lt\n        /* \"Voting.sol\":4913:5226  for(uint i=0 ; i < proposals.length; i++){... */\n      iszero\n      tag_92\n      jumpi\n        /* \"Voting.sol\":5086:5102  highestVoteCount */\n      dup3\n        /* \"Voting.sol\":5061:5070  proposals */\n      0x02\n        /* \"Voting.sol\":5071:5072  i */\n      dup3\n        /* \"Voting.sol\":5061:5073  proposals[i] */\n      dup2\n      sload\n      dup2\n      lt\n      tag_94\n      jumpi\n      tag_95\n      tag_46\n      jump\t// in\n    tag_95:\n    tag_94:\n      swap1\n      0x00\n      mstore\n      keccak256(0x00, 0x20)\n      swap1\n      0x02\n      mul\n      add\n        /* \"Voting.sol\":5061:5083  proposals[i].voteCount */\n      0x01\n      add\n      sload\n        /* \"Voting.sol\":5061:5102  proposals[i].voteCount > highestVoteCount */\n      gt\n        /* \"Voting.sol\":5058:5215  if(proposals[i].voteCount > highestVoteCount){... */\n      iszero\n      tag_97\n      jumpi\n        /* \"Voting.sol\":5141:5150  proposals */\n      0x02\n        /* \"Voting.sol\":5151:5152  i */\n      dup2\n        /* \"Voting.sol\":5141:5153  proposals[i] */\n      dup2\n      sload\n      dup2\n      lt\n      tag_98\n      jumpi\n      tag_99\n      tag_46\n      jump\t// in\n    tag_99:\n    tag_98:\n      swap1\n      0x00\n      mstore\n      keccak256(0x00, 0x20)\n      swap1\n      0x02\n      mul\n      add\n        /* \"Voting.sol\":5141:5163  proposals[i].voteCount */\n      0x01\n      add\n      sload\n        /* \"Voting.sol\":5122:5163  highestVoteCount = proposals[i].voteCount */\n      swap3\n      pop\n        /* \"Voting.sol\":5197:5198  i */\n      dup1\n        /* \"Voting.sol\":5183:5198  winnerIndex = i */\n      swap2\n      pop\n        /* \"Voting.sol\":5058:5215  if(proposals[i].voteCount > highestVoteCount){... */\n    tag_97:\n        /* \"Voting.sol\":4950:4953  i++ */\n      dup1\n      dup1\n      0x01\n      add\n      swap2\n      pop\n      pop\n        /* \"Voting.sol\":4913:5226  for(uint i=0 ; i < proposals.length; i++){... */\n      jump(tag_91)\n    tag_92:\n      pop\n        /* \"Voting.sol\":5243:5254  winnerIndex */\n      dup1\n        /* \"Voting.sol\":5236:5254  return winnerIndex */\n      swap3\n      pop\n      pop\n      pop\n        /* \"Voting.sol\":4529:5262  function winningProposal() internal view returns(uint proposalIndex){... */\n      swap1\n      jump\t// out\n        /* \"Voting.sol\":5564:6336  function tie() internal view returns(bool){... */\n    tag_89:\n        /* \"Voting.sol\":5601:5605  bool */\n      0x00\n        /* \"Voting.sol\":5617:5641  uint256 highestVoteCount */\n      0x00\n        /* \"Voting.sol\":5652:5696  uint256 NumberOfProposalWithHighestVoteCount */\n      0x00\n        /* \"Voting.sol\":5712:5718  uint i */\n      0x00\n        /* \"Voting.sol\":5719:5720  0 */\n      0x00\n        /* \"Voting.sol\":5712:5720  uint i=0 */\n      swap1\n      pop\n        /* \"Voting.sol\":5708:5986  for(uint i=0 ; i < proposals.length; i++){... */\n    tag_102:\n        /* \"Voting.sol\":5727:5736  proposals */\n      0x02\n        /* \"Voting.sol\":5727:5743  proposals.length */\n      dup1\n      sload\n      swap1\n      pop\n        /* \"Voting.sol\":5723:5724  i */\n      dup2\n        /* \"Voting.sol\":5723:5743  i < proposals.length */\n      lt\n        /* \"Voting.sol\":5708:5986  for(uint i=0 ; i < proposals.length; i++){... */\n      iszero\n      tag_103\n      jumpi\n        /* \"Voting.sol\":5881:5897  highestVoteCount */\n      dup3\n        /* \"Voting.sol\":5856:5865  proposals */\n      0x02\n        /* \"Voting.sol\":5866:5867  i */\n      dup3\n        /* \"Voting.sol\":5856:5868  proposals[i] */\n      dup2\n      sload\n      dup2\n      lt\n      tag_105\n      jumpi\n      tag_106\n      tag_46\n      jump\t// in\n    tag_106:\n    tag_105:\n      swap1\n      0x00\n      mstore\n      keccak256(0x00, 0x20)\n      swap1\n      0x02\n      mul\n      add\n        /* \"Voting.sol\":5856:5878  proposals[i].voteCount */\n      0x01\n      add\n      sload\n        /* \"Voting.sol\":5856:5897  proposals[i].voteCount > highestVoteCount */\n      gt\n        /* \"Voting.sol\":5853:5975  if(proposals[i].voteCount > highestVoteCount){... */\n      iszero\n      tag_108\n      jumpi\n        /* \"Voting.sol\":5936:5945  proposals */\n      0x02\n        /* \"Voting.sol\":5946:5947  i */\n      dup2\n        /* \"Voting.sol\":5936:5948  proposals[i] */\n      dup2\n      sload\n      dup2\n      lt\n      tag_109\n      jumpi\n      tag_110\n      tag_46\n      jump\t// in\n    tag_110:\n    tag_109:\n      swap1\n      0x00\n      mstore\n      keccak256(0x00, 0x20)\n      swap1\n      0x02\n      mul\n      add\n        /* \"Voting.sol\":5936:5958  proposals[i].voteCount */\n      0x01\n      add\n      sload\n        /* \"Voting.sol\":5917:5958  highestVoteCount = proposals[i].voteCount */\n      swap3\n      pop\n        /* \"Voting.sol\":5853:5975  if(proposals[i].voteCount > highestVoteCount){... */\n    tag_108:\n        /* \"Voting.sol\":5745:5748  i++ */\n      dup1\n      dup1\n      0x01\n      add\n      swap2\n      pop\n      pop\n        /* \"Voting.sol\":5708:5986  for(uint i=0 ; i < proposals.length; i++){... */\n      jump(tag_102)\n    tag_103:\n      pop\n        /* \"Voting.sol\":6000:6006  uint i */\n      0x00\n        /* \"Voting.sol\":6007:6008  0 */\n      0x00\n        /* \"Voting.sol\":6000:6008  uint i=0 */\n      swap1\n      pop\n        /* \"Voting.sol\":5996:6271  for(uint i=0 ; i < proposals.length; i++){... */\n    tag_112:\n        /* \"Voting.sol\":6015:6024  proposals */\n      0x02\n        /* \"Voting.sol\":6015:6031  proposals.length */\n      dup1\n      sload\n      swap1\n      pop\n        /* \"Voting.sol\":6011:6012  i */\n      dup2\n        /* \"Voting.sol\":6011:6031  i < proposals.length */\n      lt\n        /* \"Voting.sol\":5996:6271  for(uint i=0 ; i < proposals.length; i++){... */\n      iszero\n      tag_113\n      jumpi\n        /* \"Voting.sol\":6170:6186  highestVoteCount */\n      dup3\n        /* \"Voting.sol\":6144:6153  proposals */\n      0x02\n        /* \"Voting.sol\":6154:6155  i */\n      dup3\n        /* \"Voting.sol\":6144:6156  proposals[i] */\n      dup2\n      sload\n      dup2\n      lt\n      tag_115\n      jumpi\n      tag_116\n      tag_46\n      jump\t// in\n    tag_116:\n    tag_115:\n      swap1\n      0x00\n      mstore\n      keccak256(0x00, 0x20)\n      swap1\n      0x02\n      mul\n      add\n        /* \"Voting.sol\":6144:6166  proposals[i].voteCount */\n      0x01\n      add\n      sload\n        /* \"Voting.sol\":6144:6186  proposals[i].voteCount == highestVoteCount */\n      sub\n        /* \"Voting.sol\":6141:6260  if(proposals[i].voteCount == highestVoteCount){... */\n      tag_118\n      jumpi\n        /* \"Voting.sol\":6206:6244  NumberOfProposalWithHighestVoteCount++ */\n      dup2\n      dup1\n      tag_119\n      swap1\n      tag_120\n      jump\t// in\n    tag_119:\n      swap3\n      pop\n      pop\n        /* \"Voting.sol\":6141:6260  if(proposals[i].voteCount == highestVoteCount){... */\n    tag_118:\n        /* \"Voting.sol\":6033:6036  i++ */\n      dup1\n      dup1\n      0x01\n      add\n      swap2\n      pop\n      pop\n        /* \"Voting.sol\":5996:6271  for(uint i=0 ; i < proposals.length; i++){... */\n      jump(tag_112)\n    tag_113:\n      pop\n        /* \"Voting.sol\":6327:6328  1 */\n      0x01\n        /* \"Voting.sol\":6288:6324  NumberOfProposalWithHighestVoteCount */\n      dup2\n        /* \"Voting.sol\":6288:6328  NumberOfProposalWithHighestVoteCount > 1 */\n      gt\n        /* \"Voting.sol\":6281:6328  return NumberOfProposalWithHighestVoteCount > 1 */\n      swap3\n      pop\n      pop\n      pop\n        /* \"Voting.sol\":5564:6336  function tie() internal view returns(bool){... */\n      swap1\n      jump\t// out\n    tag_71:\n      mload(0x40)\n      dup1\n      0x40\n      add\n      0x40\n      mstore\n      dup1\n      0x00\n      dup2\n      mstore\n      0x20\n      add\n      0x00\n      dup2\n      mstore\n      pop\n      swap1\n      jump\t// out\n    tag_77:\n      mload(0x40)\n      dup1\n      0x80\n      add\n      0x40\n      mstore\n      dup1\n      0x00\n      dup2\n      mstore\n      0x20\n      add\n      iszero(iszero(0x00))\n      dup2\n      mstore\n      0x20\n      add\n      and(0xffffffffffffffffffffffffffffffffffffffff, 0x00)\n      dup2\n      mstore\n      0x20\n      add\n      0x00\n      dup2\n      mstore\n      pop\n      swap1\n      jump\t// out\n        /* \"#utility.yul\":88:205   */\n    tag_122:\n        /* \"#utility.yul\":197:198   */\n      0x00\n        /* \"#utility.yul\":194:195   */\n      0x00\n        /* \"#utility.yul\":187:199   */\n      revert\n        /* \"#utility.yul\":334:411   */\n    tag_124:\n        /* \"#utility.yul\":371:378   */\n      0x00\n        /* \"#utility.yul\":400:405   */\n      dup2\n        /* \"#utility.yul\":389:405   */\n      swap1\n      pop\n        /* \"#utility.yul\":334:411   */\n      swap2\n      swap1\n      pop\n      jump\t// out\n        /* \"#utility.yul\":417:539   */\n    tag_125:\n        /* \"#utility.yul\":490:514   */\n      tag_148\n        /* \"#utility.yul\":508:513   */\n      dup2\n        /* \"#utility.yul\":490:514   */\n      tag_124\n      jump\t// in\n    tag_148:\n        /* \"#utility.yul\":483:488   */\n      dup2\n        /* \"#utility.yul\":480:515   */\n      eq\n        /* \"#utility.yul\":470:533   */\n      tag_149\n      jumpi\n        /* \"#utility.yul\":529:530   */\n      0x00\n        /* \"#utility.yul\":526:527   */\n      0x00\n        /* \"#utility.yul\":519:531   */\n      revert\n        /* \"#utility.yul\":470:533   */\n    tag_149:\n        /* \"#utility.yul\":417:539   */\n      pop\n      jump\t// out\n        /* \"#utility.yul\":545:684   */\n    tag_126:\n        /* \"#utility.yul\":591:596   */\n      0x00\n        /* \"#utility.yul\":629:635   */\n      dup2\n        /* \"#utility.yul\":616:636   */\n      calldataload\n        /* \"#utility.yul\":607:636   */\n      swap1\n      pop\n        /* \"#utility.yul\":645:678   */\n      tag_151\n        /* \"#utility.yul\":672:677   */\n      dup2\n        /* \"#utility.yul\":645:678   */\n      tag_125\n      jump\t// in\n    tag_151:\n        /* \"#utility.yul\":545:684   */\n      swap3\n      swap2\n      pop\n      pop\n      jump\t// out\n        /* \"#utility.yul\":690:1019   */\n    tag_13:\n        /* \"#utility.yul\":749:755   */\n      0x00\n        /* \"#utility.yul\":798:800   */\n      0x20\n        /* \"#utility.yul\":786:795   */\n      dup3\n        /* \"#utility.yul\":777:784   */\n      dup5\n        /* \"#utility.yul\":773:796   */\n      sub\n        /* \"#utility.yul\":769:801   */\n      slt\n        /* \"#utility.yul\":766:885   */\n      iszero\n      tag_153\n      jumpi\n        /* \"#utility.yul\":804:883   */\n      tag_154\n      tag_122\n      jump\t// in\n    tag_154:\n        /* \"#utility.yul\":766:885   */\n    tag_153:\n        /* \"#utility.yul\":924:925   */\n      0x00\n        /* \"#utility.yul\":949:1002   */\n      tag_155\n        /* \"#utility.yul\":994:1001   */\n      dup5\n        /* \"#utility.yul\":985:991   */\n      dup3\n        /* \"#utility.yul\":974:983   */\n      dup6\n        /* \"#utility.yul\":970:992   */\n      add\n        /* \"#utility.yul\":949:1002   */\n      tag_126\n      jump\t// in\n    tag_155:\n        /* \"#utility.yul\":939:1002   */\n      swap2\n      pop\n        /* \"#utility.yul\":895:1012   */\n      pop\n        /* \"#utility.yul\":690:1019   */\n      swap3\n      swap2\n      pop\n      pop\n      jump\t// out\n        /* \"#utility.yul\":1025:1151   */\n    tag_127:\n        /* \"#utility.yul\":1062:1069   */\n      0x00\n        /* \"#utility.yul\":1102:1144   */\n      0xffffffffffffffffffffffffffffffffffffffff\n        /* \"#utility.yul\":1095:1100   */\n      dup3\n        /* \"#utility.yul\":1091:1145   */\n      and\n        /* \"#utility.yul\":1080:1145   */\n      swap1\n      pop\n        /* \"#utility.yul\":1025:1151   */\n      swap2\n      swap1\n      pop\n      jump\t// out\n        /* \"#utility.yul\":1157:1253   */\n    tag_128:\n        /* \"#utility.yul\":1194:1201   */\n      0x00\n        /* \"#utility.yul\":1223:1247   */\n      tag_158\n        /* \"#utility.yul\":1241:1246   */\n      dup3\n        /* \"#utility.yul\":1223:1247   */\n      tag_127\n      jump\t// in\n    tag_158:\n        /* \"#utility.yul\":1212:1247   */\n      swap1\n      pop\n        /* \"#utility.yul\":1157:1253   */\n      swap2\n      swap1\n      pop\n      jump\t// out\n        /* \"#utility.yul\":1259:1381   */\n    tag_129:\n        /* \"#utility.yul\":1332:1356   */\n      tag_160\n        /* \"#utility.yul\":1350:1355   */\n      dup2\n        /* \"#utility.yul\":1332:1356   */\n      tag_128\n      jump\t// in\n    tag_160:\n        /* \"#utility.yul\":1325:1330   */\n      dup2\n        /* \"#utility.yul\":1322:1357   */\n      eq\n        /* \"#utility.yul\":1312:1375   */\n      tag_161\n      jumpi\n        /* \"#utility.yul\":1371:1372   */\n      0x00\n        /* \"#utility.yul\":1368:1369   */\n      0x00\n        /* \"#utility.yul\":1361:1373   */\n      revert\n        /* \"#utility.yul\":1312:1375   */\n    tag_161:\n        /* \"#utility.yul\":1259:1381   */\n      pop\n      jump\t// out\n        /* \"#utility.yul\":1387:1526   */\n    tag_130:\n        /* \"#utility.yul\":1433:1438   */\n      0x00\n        /* \"#utility.yul\":1471:1477   */\n      dup2\n        /* \"#utility.yul\":1458:1478   */\n      calldataload\n        /* \"#utility.yul\":1449:1478   */\n      swap1\n      pop\n        /* \"#utility.yul\":1487:1520   */\n      tag_163\n        /* \"#utility.yul\":1514:1519   */\n      dup2\n        /* \"#utility.yul\":1487:1520   */\n      tag_129\n      jump\t// in\n    tag_163:\n        /* \"#utility.yul\":1387:1526   */\n      swap3\n      swap2\n      pop\n      pop\n      jump\t// out\n        /* \"#utility.yul\":1532:1861   */\n    tag_17:\n        /* \"#utility.yul\":1591:1597   */\n      0x00\n        /* \"#utility.yul\":1640:1642   */\n      0x20\n        /* \"#utility.yul\":1628:1637   */\n      dup3\n        /* \"#utility.yul\":1619:1626   */\n      dup5\n        /* \"#utility.yul\":1615:1638   */\n      sub\n        /* \"#utility.yul\":1611:1643   */\n      slt\n        /* \"#utility.yul\":1608:1727   */\n      iszero\n      tag_165\n      jumpi\n        /* \"#utility.yul\":1646:1725   */\n      tag_166\n      tag_122\n      jump\t// in\n    tag_166:\n        /* \"#utility.yul\":1608:1727   */\n    tag_165:\n        /* \"#utility.yul\":1766:1767   */\n      0x00\n        /* \"#utility.yul\":1791:1844   */\n      tag_167\n        /* \"#utility.yul\":1836:1843   */\n      dup5\n        /* \"#utility.yul\":1827:1833   */\n      dup3\n        /* \"#utility.yul\":1816:1825   */\n      dup6\n        /* \"#utility.yul\":1812:1834   */\n      add\n        /* \"#utility.yul\":1791:1844   */\n      tag_130\n      jump\t// in\n    tag_167:\n        /* \"#utility.yul\":1781:1844   */\n      swap2\n      pop\n        /* \"#utility.yul\":1737:1854   */\n      pop\n        /* \"#utility.yul\":1532:1861   */\n      swap3\n      swap2\n      pop\n      pop\n      jump\t// out\n        /* \"#utility.yul\":1867:1985   */\n    tag_131:\n        /* \"#utility.yul\":1954:1978   */\n      tag_169\n        /* \"#utility.yul\":1972:1977   */\n      dup2\n        /* \"#utility.yul\":1954:1978   */\n      tag_128\n      jump\t// in\n    tag_169:\n        /* \"#utility.yul\":1949:1952   */\n      dup3\n        /* \"#utility.yul\":1942:1979   */\n      mstore\n        /* \"#utility.yul\":1867:1985   */\n      pop\n      pop\n      jump\t// out\n        /* \"#utility.yul\":1991:2213   */\n    tag_25:\n        /* \"#utility.yul\":2084:2088   */\n      0x00\n        /* \"#utility.yul\":2122:2124   */\n      0x20\n        /* \"#utility.yul\":2111:2120   */\n      dup3\n        /* \"#utility.yul\":2107:2125   */\n      add\n        /* \"#utility.yul\":2099:2125   */\n      swap1\n      pop\n        /* \"#utility.yul\":2135:2206   */\n      tag_171\n        /* \"#utility.yul\":2203:2204   */\n      0x00\n        /* \"#utility.yul\":2192:2201   */\n      dup4\n        /* \"#utility.yul\":2188:2205   */\n      add\n        /* \"#utility.yul\":2179:2185   */\n      dup5\n        /* \"#utility.yul\":2135:2206   */\n      tag_131\n      jump\t// in\n    tag_171:\n        /* \"#utility.yul\":1991:2213   */\n      swap3\n      swap2\n      pop\n      pop\n      jump\t// out\n        /* \"#utility.yul\":2219:2296   */\n    tag_132:\n        /* \"#utility.yul\":2256:2263   */\n      0x00\n        /* \"#utility.yul\":2285:2290   */\n      dup2\n        /* \"#utility.yul\":2274:2290   */\n      swap1\n      pop\n        /* \"#utility.yul\":2219:2296   */\n      swap2\n      swap1\n      pop\n      jump\t// out\n        /* \"#utility.yul\":2302:2410   */\n    tag_133:\n        /* \"#utility.yul\":2379:2403   */\n      tag_174\n        /* \"#utility.yul\":2397:2402   */\n      dup2\n        /* \"#utility.yul\":2379:2403   */\n      tag_132\n      jump\t// in\n    tag_174:\n        /* \"#utility.yul\":2374:2377   */\n      dup3\n        /* \"#utility.yul\":2367:2404   */\n      mstore\n        /* \"#utility.yul\":2302:2410   */\n      pop\n      pop\n      jump\t// out\n        /* \"#utility.yul\":2416:2524   */\n    tag_134:\n        /* \"#utility.yul\":2493:2517   */\n      tag_176\n        /* \"#utility.yul\":2511:2516   */\n      dup2\n        /* \"#utility.yul\":2493:2517   */\n      tag_124\n      jump\t// in\n    tag_176:\n        /* \"#utility.yul\":2488:2491   */\n      dup3\n        /* \"#utility.yul\":2481:2518   */\n      mstore\n        /* \"#utility.yul\":2416:2524   */\n      pop\n      pop\n      jump\t// out\n        /* \"#utility.yul\":2586:3096   */\n    tag_135:\n        /* \"#utility.yul\":2731:2735   */\n      0x40\n        /* \"#utility.yul\":2726:2729   */\n      dup3\n        /* \"#utility.yul\":2722:2736   */\n      add\n        /* \"#utility.yul\":2818:2822   */\n      0x00\n        /* \"#utility.yul\":2811:2816   */\n      dup3\n        /* \"#utility.yul\":2807:2823   */\n      add\n        /* \"#utility.yul\":2801:2824   */\n      mload\n        /* \"#utility.yul\":2837:2900   */\n      tag_178\n        /* \"#utility.yul\":2894:2898   */\n      0x00\n        /* \"#utility.yul\":2889:2892   */\n      dup6\n        /* \"#utility.yul\":2885:2899   */\n      add\n        /* \"#utility.yul\":2871:2883   */\n      dup3\n        /* \"#utility.yul\":2837:2900   */\n      tag_133\n      jump\t// in\n    tag_178:\n        /* \"#utility.yul\":2746:2910   */\n      pop\n        /* \"#utility.yul\":2997:3001   */\n      0x20\n        /* \"#utility.yul\":2990:2995   */\n      dup3\n        /* \"#utility.yul\":2986:3002   */\n      add\n        /* \"#utility.yul\":2980:3003   */\n      mload\n        /* \"#utility.yul\":3016:3079   */\n      tag_179\n        /* \"#utility.yul\":3073:3077   */\n      0x20\n        /* \"#utility.yul\":3068:3071   */\n      dup6\n        /* \"#utility.yul\":3064:3078   */\n      add\n        /* \"#utility.yul\":3050:3062   */\n      dup3\n        /* \"#utility.yul\":3016:3079   */\n      tag_134\n      jump\t// in\n    tag_179:\n        /* \"#utility.yul\":2920:3089   */\n      pop\n        /* \"#utility.yul\":2700:3096   */\n      pop\n        /* \"#utility.yul\":2586:3096   */\n      pop\n      pop\n      jump\t// out\n        /* \"#utility.yul\":3102:3420   */\n    tag_30:\n        /* \"#utility.yul\":3243:3247   */\n      0x00\n        /* \"#utility.yul\":3281:3283   */\n      0x40\n        /* \"#utility.yul\":3270:3279   */\n      dup3\n        /* \"#utility.yul\":3266:3284   */\n      add\n        /* \"#utility.yul\":3258:3284   */\n      swap1\n      pop\n        /* \"#utility.yul\":3294:3413   */\n      tag_181\n        /* \"#utility.yul\":3410:3411   */\n      0x00\n        /* \"#utility.yul\":3399:3408   */\n      dup4\n        /* \"#utility.yul\":3395:3412   */\n      add\n        /* \"#utility.yul\":3386:3392   */\n      dup5\n        /* \"#utility.yul\":3294:3413   */\n      tag_135\n      jump\t// in\n    tag_181:\n        /* \"#utility.yul\":3102:3420   */\n      swap3\n      swap2\n      pop\n      pop\n      jump\t// out\n        /* \"#utility.yul\":3426:3516   */\n    tag_136:\n        /* \"#utility.yul\":3460:3467   */\n      0x00\n        /* \"#utility.yul\":3503:3508   */\n      dup2\n        /* \"#utility.yul\":3496:3509   */\n      iszero\n        /* \"#utility.yul\":3489:3510   */\n      iszero\n        /* \"#utility.yul\":3478:3510   */\n      swap1\n      pop\n        /* \"#utility.yul\":3426:3516   */\n      swap2\n      swap1\n      pop\n      jump\t// out\n        /* \"#utility.yul\":3522:3621   */\n    tag_137:\n        /* \"#utility.yul\":3593:3614   */\n      tag_184\n        /* \"#utility.yul\":3608:3613   */\n      dup2\n        /* \"#utility.yul\":3593:3614   */\n      tag_136\n      jump\t// in\n    tag_184:\n        /* \"#utility.yul\":3588:3591   */\n      dup3\n        /* \"#utility.yul\":3581:3615   */\n      mstore\n        /* \"#utility.yul\":3522:3621   */\n      pop\n      pop\n      jump\t// out\n        /* \"#utility.yul\":3627:3735   */\n    tag_138:\n        /* \"#utility.yul\":3704:3728   */\n      tag_186\n        /* \"#utility.yul\":3722:3727   */\n      dup2\n        /* \"#utility.yul\":3704:3728   */\n      tag_128\n      jump\t// in\n    tag_186:\n        /* \"#utility.yul\":3699:3702   */\n      dup3\n        /* \"#utility.yul\":3692:3729   */\n      mstore\n        /* \"#utility.yul\":3627:3735   */\n      pop\n      pop\n      jump\t// out\n        /* \"#utility.yul\":3791:4639   */\n    tag_139:\n        /* \"#utility.yul\":3930:3934   */\n      0x80\n        /* \"#utility.yul\":3925:3928   */\n      dup3\n        /* \"#utility.yul\":3921:3935   */\n      add\n        /* \"#utility.yul\":4019:4023   */\n      0x00\n        /* \"#utility.yul\":4012:4017   */\n      dup3\n        /* \"#utility.yul\":4008:4024   */\n      add\n        /* \"#utility.yul\":4002:4025   */\n      mload\n        /* \"#utility.yul\":4038:4101   */\n      tag_188\n        /* \"#utility.yul\":4095:4099   */\n      0x00\n        /* \"#utility.yul\":4090:4093   */\n      dup6\n        /* \"#utility.yul\":4086:4100   */\n      add\n        /* \"#utility.yul\":4072:4084   */\n      dup3\n        /* \"#utility.yul\":4038:4101   */\n      tag_134\n      jump\t// in\n    tag_188:\n        /* \"#utility.yul\":3945:4111   */\n      pop\n        /* \"#utility.yul\":4194:4198   */\n      0x20\n        /* \"#utility.yul\":4187:4192   */\n      dup3\n        /* \"#utility.yul\":4183:4199   */\n      add\n        /* \"#utility.yul\":4177:4200   */\n      mload\n        /* \"#utility.yul\":4213:4270   */\n      tag_189\n        /* \"#utility.yul\":4264:4268   */\n      0x20\n        /* \"#utility.yul\":4259:4262   */\n      dup6\n        /* \"#utility.yul\":4255:4269   */\n      add\n        /* \"#utility.yul\":4241:4253   */\n      dup3\n        /* \"#utility.yul\":4213:4270   */\n      tag_137\n      jump\t// in\n    tag_189:\n        /* \"#utility.yul\":4121:4280   */\n      pop\n        /* \"#utility.yul\":4366:4370   */\n      0x40\n        /* \"#utility.yul\":4359:4364   */\n      dup3\n        /* \"#utility.yul\":4355:4371   */\n      add\n        /* \"#utility.yul\":4349:4372   */\n      mload\n        /* \"#utility.yul\":4385:4448   */\n      tag_190\n        /* \"#utility.yul\":4442:4446   */\n      0x40\n        /* \"#utility.yul\":4437:4440   */\n      dup6\n        /* \"#utility.yul\":4433:4447   */\n      add\n        /* \"#utility.yul\":4419:4431   */\n      dup3\n        /* \"#utility.yul\":4385:4448   */\n      tag_138\n      jump\t// in\n    tag_190:\n        /* \"#utility.yul\":4290:4458   */\n      pop\n        /* \"#utility.yul\":4540:4544   */\n      0x60\n        /* \"#utility.yul\":4533:4538   */\n      dup3\n        /* \"#utility.yul\":4529:4545   */\n      add\n        /* \"#utility.yul\":4523:4546   */\n      mload\n        /* \"#utility.yul\":4559:4622   */\n      tag_191\n        /* \"#utility.yul\":4616:4620   */\n      0x60\n        /* \"#utility.yul\":4611:4614   */\n      dup6\n        /* \"#utility.yul\":4607:4621   */\n      add\n        /* \"#utility.yul\":4593:4605   */\n      dup3\n        /* \"#utility.yul\":4559:4622   */\n      tag_134\n      jump\t// in\n    tag_191:\n        /* \"#utility.yul\":4468:4632   */\n      pop\n        /* \"#utility.yul\":3899:4639   */\n      pop\n        /* \"#utility.yul\":3791:4639   */\n      pop\n      pop\n      jump\t// out\n        /* \"#utility.yul\":4645:4952   */\n    tag_35:\n        /* \"#utility.yul\":4780:4784   */\n      0x00\n        /* \"#utility.yul\":4818:4821   */\n      0x80\n        /* \"#utility.yul\":4807:4816   */\n      dup3\n        /* \"#utility.yul\":4803:4822   */\n      add\n        /* \"#utility.yul\":4795:4822   */\n      swap1\n      pop\n        /* \"#utility.yul\":4832:4945   */\n      tag_193\n        /* \"#utility.yul\":4942:4943   */\n      0x00\n        /* \"#utility.yul\":4931:4940   */\n      dup4\n        /* \"#utility.yul\":4927:4944   */\n      add\n        /* \"#utility.yul\":4918:4924   */\n      dup5\n        /* \"#utility.yul\":4832:4945   */\n      tag_139\n      jump\t// in\n    tag_193:\n        /* \"#utility.yul\":4645:4952   */\n      swap3\n      swap2\n      pop\n      pop\n      jump\t// out\n        /* \"#utility.yul\":4958:5076   */\n    tag_140:\n        /* \"#utility.yul\":5045:5069   */\n      tag_195\n        /* \"#utility.yul\":5063:5068   */\n      dup2\n        /* \"#utility.yul\":5045:5069   */\n      tag_132\n      jump\t// in\n    tag_195:\n        /* \"#utility.yul\":5040:5043   */\n      dup3\n        /* \"#utility.yul\":5033:5070   */\n      mstore\n        /* \"#utility.yul\":4958:5076   */\n      pop\n      pop\n      jump\t// out\n        /* \"#utility.yul\":5082:5304   */\n    tag_39:\n        /* \"#utility.yul\":5175:5179   */\n      0x00\n        /* \"#utility.yul\":5213:5215   */\n      0x20\n        /* \"#utility.yul\":5202:5211   */\n      dup3\n        /* \"#utility.yul\":5198:5216   */\n      add\n        /* \"#utility.yul\":5190:5216   */\n      swap1\n      pop\n        /* \"#utility.yul\":5226:5297   */\n      tag_197\n        /* \"#utility.yul\":5294:5295   */\n      0x00\n        /* \"#utility.yul\":5283:5292   */\n      dup4\n        /* \"#utility.yul\":5279:5296   */\n      add\n        /* \"#utility.yul\":5270:5276   */\n      dup5\n        /* \"#utility.yul\":5226:5297   */\n      tag_140\n      jump\t// in\n    tag_197:\n        /* \"#utility.yul\":5082:5304   */\n      swap3\n      swap2\n      pop\n      pop\n      jump\t// out\n        /* \"#utility.yul\":5310:5490   */\n    tag_46:\n        /* \"#utility.yul\":5358:5435   */\n      0x4e487b7100000000000000000000000000000000000000000000000000000000\n        /* \"#utility.yul\":5355:5356   */\n      0x00\n        /* \"#utility.yul\":5348:5436   */\n      mstore\n        /* \"#utility.yul\":5455:5459   */\n      0x32\n        /* \"#utility.yul\":5452:5453   */\n      0x04\n        /* \"#utility.yul\":5445:5460   */\n      mstore\n        /* \"#utility.yul\":5479:5483   */\n      0x24\n        /* \"#utility.yul\":5476:5477   */\n      0x00\n        /* \"#utility.yul\":5469:5484   */\n      revert\n        /* \"#utility.yul\":5496:5676   */\n    tag_141:\n        /* \"#utility.yul\":5544:5621   */\n      0x4e487b7100000000000000000000000000000000000000000000000000000000\n        /* \"#utility.yul\":5541:5542   */\n      0x00\n        /* \"#utility.yul\":5534:5622   */\n      mstore\n        /* \"#utility.yul\":5641:5645   */\n      0x11\n        /* \"#utility.yul\":5638:5639   */\n      0x04\n        /* \"#utility.yul\":5631:5646   */\n      mstore\n        /* \"#utility.yul\":5665:5669   */\n      0x24\n        /* \"#utility.yul\":5662:5663   */\n      0x00\n        /* \"#utility.yul\":5655:5670   */\n      revert\n        /* \"#utility.yul\":5682:5873   */\n    tag_49:\n        /* \"#utility.yul\":5722:5725   */\n      0x00\n        /* \"#utility.yul\":5741:5761   */\n      tag_201\n        /* \"#utility.yul\":5759:5760   */\n      dup3\n        /* \"#utility.yul\":5741:5761   */\n      tag_124\n      jump\t// in\n    tag_201:\n        /* \"#utility.yul\":5736:5761   */\n      swap2\n      pop\n        /* \"#utility.yul\":5775:5795   */\n      tag_202\n        /* \"#utility.yul\":5793:5794   */\n      dup4\n        /* \"#utility.yul\":5775:5795   */\n      tag_124\n      jump\t// in\n    tag_202:\n        /* \"#utility.yul\":5770:5795   */\n      swap3\n      pop\n        /* \"#utility.yul\":5818:5819   */\n      dup3\n        /* \"#utility.yul\":5815:5816   */\n      dup3\n        /* \"#utility.yul\":5811:5820   */\n      add\n        /* \"#utility.yul\":5804:5820   */\n      swap1\n      pop\n        /* \"#utility.yul\":5839:5842   */\n      dup1\n        /* \"#utility.yul\":5836:5837   */\n      dup3\n        /* \"#utility.yul\":5833:5843   */\n      gt\n        /* \"#utility.yul\":5830:5866   */\n      iszero\n      tag_203\n      jumpi\n        /* \"#utility.yul\":5846:5864   */\n      tag_204\n      tag_141\n      jump\t// in\n    tag_204:\n        /* \"#utility.yul\":5830:5866   */\n    tag_203:\n        /* \"#utility.yul\":5682:5873   */\n      swap3\n      swap2\n      pop\n      pop\n      jump\t// out\n        /* \"#utility.yul\":5879:6112   */\n    tag_120:\n        /* \"#utility.yul\":5918:5921   */\n      0x00\n        /* \"#utility.yul\":5941:5965   */\n      tag_206\n        /* \"#utility.yul\":5959:5964   */\n      dup3\n        /* \"#utility.yul\":5941:5965   */\n      tag_124\n      jump\t// in\n    tag_206:\n        /* \"#utility.yul\":5932:5965   */\n      swap2\n      pop\n        /* \"#utility.yul\":5987:6053   */\n      0xffffffffffffffffffffffffffffffffffffffffffffffffffffffffffffffff\n        /* \"#utility.yul\":5980:5985   */\n      dup3\n        /* \"#utility.yul\":5977:6054   */\n      sub\n        /* \"#utility.yul\":5974:6077   */\n      tag_207\n      jumpi\n        /* \"#utility.yul\":6057:6075   */\n      tag_208\n      tag_141\n      jump\t// in\n    tag_208:\n        /* \"#utility.yul\":5974:6077   */\n    tag_207:\n        /* \"#utility.yul\":6104:6105   */\n      0x01\n        /* \"#utility.yul\":6097:6102   */\n      dup3\n        /* \"#utility.yul\":6093:6106   */\n      add\n        /* \"#utility.yul\":6086:6106   */\n      swap1\n      pop\n        /* \"#utility.yul\":5879:6112   */\n      swap2\n      swap1\n      pop\n      jump\t// out\n\n    auxdata: 0xa2646970667358221220ce9ab504112e0ff2426e25bf973d68ff2049c4b4892c170fb0250679cdf8710464736f6c634300081b0033\n}\n",
				"bytecode": {
					"linkReferences": {},
					"object": "608060405234801561000f575f5ffd5b50604051611575380380611575833981810160405281019061003191906102f5565b335f5f6101000a81548173ffffffffffffffffffffffffffffffffffffffff021916908373ffffffffffffffffffffffffffffffffffffffff1602179055506001805f5f5f9054906101000a900473ffffffffffffffffffffffffffffffffffffffff1673ffffffffffffffffffffffffffffffffffffffff1673ffffffffffffffffffffffffffffffffffffffff1681526020019081526020015f205f01819055505f5f90505b815181101561015a57600260405180604001604052808484815181106101025761010161033c565b5b602002602001015181526020015f815250908060018154018082558091505060019003905f5260205f2090600202015f909190919091505f820151815f015560208201518160010155505080806001019150506100d9565b5050610369565b5f604051905090565b5f5ffd5b5f5ffd5b5f5ffd5b5f601f19601f8301169050919050565b7f4e487b71000000000000000000000000000000000000000000000000000000005f52604160045260245ffd5b6101bc82610176565b810181811067ffffffffffffffff821117156101db576101da610186565b5b80604052505050565b5f6101ed610161565b90506101f982826101b3565b919050565b5f67ffffffffffffffff82111561021857610217610186565b5b602082029050602081019050919050565b5f5ffd5b5f819050919050565b61023f8161022d565b8114610249575f5ffd5b50565b5f8151905061025a81610236565b92915050565b5f61027261026d846101fe565b6101e4565b9050808382526020820190506020840283018581111561029557610294610229565b5b835b818110156102be57806102aa888261024c565b845260208401935050602081019050610297565b5050509392505050565b5f82601f8301126102dc576102db610172565b5b81516102ec848260208601610260565b91505092915050565b5f6020828403121561030a5761030961016a565b5b5f82015167ffffffffffffffff8111156103275761032661016e565b5b610333848285016102c8565b91505092915050565b7f4e487b71000000000000000000000000000000000000000000000000000000005f52603260045260245ffd5b6111ff806103765f395ff3fe608060405234801561000f575f5ffd5b506004361061007b575f3560e01c80639e7e2b09116100595780639e7e2b09146100d3578063c7f758a8146100f1578063d4f50f9814610121578063e2ba53f0146101515761007b565b80630121b93f1461007f5780635c19a95c1461009b5780639e7b8d61146100b7575b5f5ffd5b61009960048036038101906100949190610ef3565b61016f565b005b6100b560048036038101906100b09190610f78565b6103c0565b005b6100d160048036038101906100cc9190610f78565b6108ff565b005b6100db610ac7565b6040516100e89190610fb2565b60405180910390f35b61010b60048036038101906101069190610ef3565b610aee565b604051610118919061101f565b60405180910390f35b61013b60048036038101906101369190610f78565b610b3b565b60405161014891906110b4565b60405180910390f35b610159610c9a565b60405161016691906110dc565b60405180910390f35b5f60015f3373ffffffffffffffffffffffffffffffffffffffff1673ffffffffffffffffffffffffffffffffffffffff1681526020019081526020015f205f0154116101e7576040517f04e71fda00000000000000000000000000000000000000000000000000000000815260040160405180910390fd5b60015f3373ffffffffffffffffffffffffffffffffffffffff1673ffffffffffffffffffffffffffffffffffffffff1681526020019081526020015f206001015f9054906101000a900460ff161561026b576040517f715a868600000000000000000000000000000000000000000000000000000000815260040160405180910390fd5b60028054905081106102a9576040517f06e1831200000000000000000000000000000000000000000000000000000000815260040160405180910390fd5b8060015f3373ffffffffffffffffffffffffffffffffffffffff1673ffffffffffffffffffffffffffffffffffffffff1681526020019081526020015f206002018190555060015f3373ffffffffffffffffffffffffffffffffffffffff1673ffffffffffffffffffffffffffffffffffffffff1681526020019081526020015f205f015460028281548110610342576103416110f5565b5b905f5260205f2090600202016001015f82825461035f919061114f565b925050819055506001805f3373ffffffffffffffffffffffffffffffffffffffff1673ffffffffffffffffffffffffffffffffffffffff1681526020019081526020015f206001015f6101000a81548160ff02191690831515021790555050565b5f60015f3373ffffffffffffffffffffffffffffffffffffffff1673ffffffffffffffffffffffffffffffffffffffff1681526020019081526020015f205f015411610438576040517f04e71fda00000000000000000000000000000000000000000000000000000000815260040160405180910390fd5b60015f3373ffffffffffffffffffffffffffffffffffffffff1673ffffffffffffffffffffffffffffffffffffffff1681526020019081526020015f206001015f9054906101000a900460ff16156104bc576040517f715a868600000000000000000000000000000000000000000000000000000000815260040160405180910390fd5b3373ffffffffffffffffffffffffffffffffffffffff168173ffffffffffffffffffffffffffffffffffffffff1603610521576040517f1c073e4800000000000000000000000000000000000000000000000000000000815260040160405180910390fd5b5b5f73ffffffffffffffffffffffffffffffffffffffff1660015f8373ffffffffffffffffffffffffffffffffffffffff1673ffffffffffffffffffffffffffffffffffffffff1681526020019081526020015f2060010160019054906101000a900473ffffffffffffffffffffffffffffffffffffffff1673ffffffffffffffffffffffffffffffffffffffff16146106825760015f8273ffffffffffffffffffffffffffffffffffffffff1673ffffffffffffffffffffffffffffffffffffffff1681526020019081526020015f2060010160019054906101000a900473ffffffffffffffffffffffffffffffffffffffff1690508073ffffffffffffffffffffffffffffffffffffffff163373ffffffffffffffffffffffffffffffffffffffff160361067d576040517f5038b3d100000000000000000000000000000000000000000000000000000000815260040160405180910390fd5b610522565b6001805f3373ffffffffffffffffffffffffffffffffffffffff1673ffffffffffffffffffffffffffffffffffffffff1681526020019081526020015f206001015f6101000a81548160ff0219169083151502179055508060015f3373ffffffffffffffffffffffffffffffffffffffff1673ffffffffffffffffffffffffffffffffffffffff1681526020019081526020015f2060010160016101000a81548173ffffffffffffffffffffffffffffffffffffffff021916908373ffffffffffffffffffffffffffffffffffffffff16021790555060015f8273ffffffffffffffffffffffffffffffffffffffff1673ffffffffffffffffffffffffffffffffffffffff1681526020019081526020015f206001015f9054906101000a900460ff16156108675760015f3373ffffffffffffffffffffffffffffffffffffffff1673ffffffffffffffffffffffffffffffffffffffff1681526020019081526020015f205f0154600260015f8473ffffffffffffffffffffffffffffffffffffffff1673ffffffffffffffffffffffffffffffffffffffff1681526020019081526020015f20600201548154811061083e5761083d6110f5565b5b905f5260205f2090600202016001015f82825461085b919061114f565b925050819055506108fc565b60015f3373ffffffffffffffffffffffffffffffffffffffff1673ffffffffffffffffffffffffffffffffffffffff1681526020019081526020015f205f015460015f8373ffffffffffffffffffffffffffffffffffffffff1673ffffffffffffffffffffffffffffffffffffffff1681526020019081526020015f205f015f8282546108f4919061114f565b925050819055505b50565b5f5f9054906101000a900473ffffffffffffffffffffffffffffffffffffffff1673ffffffffffffffffffffffffffffffffffffffff163373ffffffffffffffffffffffffffffffffffffffff1614610984576040517f0571149200000000000000000000000000000000000000000000000000000000815260040160405180910390fd5b60015f8273ffffffffffffffffffffffffffffffffffffffff1673ffffffffffffffffffffffffffffffffffffffff1681526020019081526020015f206001015f9054906101000a900460ff1615610a08576040517f715a868600000000000000000000000000000000000000000000000000000000815260040160405180910390fd5b5f60015f8373ffffffffffffffffffffffffffffffffffffffff1673ffffffffffffffffffffffffffffffffffffffff1681526020019081526020015f205f015414610a80576040517fd98e98ce00000000000000000000000000000000000000000000000000000000815260040160405180910390fd5b6001805f8373ffffffffffffffffffffffffffffffffffffffff1673ffffffffffffffffffffffffffffffffffffffff1681526020019081526020015f205f018190555050565b5f5f5f9054906101000a900473ffffffffffffffffffffffffffffffffffffffff16905090565b610af6610e68565b60028281548110610b0a57610b096110f5565b5b905f5260205f2090600202016040518060400160405290815f82015481526020016001820154815250509050919050565b610b43610e80565b5f5f9054906101000a900473ffffffffffffffffffffffffffffffffffffffff1673ffffffffffffffffffffffffffffffffffffffff163373ffffffffffffffffffffffffffffffffffffffff1614610bc8576040517f0571149200000000000000000000000000000000000000000000000000000000815260040160405180910390fd5b60015f8373ffffffffffffffffffffffffffffffffffffffff1673ffffffffffffffffffffffffffffffffffffffff1681526020019081526020015f206040518060800160405290815f8201548152602001600182015f9054906101000a900460ff161515151581526020016001820160019054906101000a900473ffffffffffffffffffffffffffffffffffffffff1673ffffffffffffffffffffffffffffffffffffffff1673ffffffffffffffffffffffffffffffffffffffff1681526020016002820154815250509050919050565b5f6002610ca5610cca565b81548110610cb657610cb56110f5565b5b905f5260205f2090600202015f0154905090565b5f610cd3610d8f565b15610d0a576040517f3474c9a500000000000000000000000000000000000000000000000000000000815260040160405180910390fd5b5f5f90505f5f90505f5f90505b600280549050811015610d86578260028281548110610d3957610d386110f5565b5b905f5260205f209060020201600101541115610d795760028181548110610d6357610d626110f5565b5b905f5260205f2090600202016001015492508091505b8080600101915050610d17565b50809250505090565b5f5f5f5f5f90505b600280549050811015610e03578260028281548110610db957610db86110f5565b5b905f5260205f209060020201600101541115610df65760028181548110610de357610de26110f5565b5b905f5260205f2090600202016001015492505b8080600101915050610d97565b505f5f90505b600280549050811015610e5c578260028281548110610e2b57610e2a6110f5565b5b905f5260205f2090600202016001015403610e4f578180610e4b90611182565b9250505b8080600101915050610e09565b50600181119250505090565b60405180604001604052805f81526020015f81525090565b60405180608001604052805f81526020015f151581526020015f73ffffffffffffffffffffffffffffffffffffffff1681526020015f81525090565b5f5ffd5b5f819050919050565b610ed281610ec0565b8114610edc575f5ffd5b50565b5f81359050610eed81610ec9565b92915050565b5f60208284031215610f0857610f07610ebc565b5b5f610f1584828501610edf565b91505092915050565b5f73ffffffffffffffffffffffffffffffffffffffff82169050919050565b5f610f4782610f1e565b9050919050565b610f5781610f3d565b8114610f61575f5ffd5b50565b5f81359050610f7281610f4e565b92915050565b5f60208284031215610f8d57610f8c610ebc565b5b5f610f9a84828501610f64565b91505092915050565b610fac81610f3d565b82525050565b5f602082019050610fc55f830184610fa3565b92915050565b5f819050919050565b610fdd81610fcb565b82525050565b610fec81610ec0565b82525050565b604082015f8201516110065f850182610fd4565b5060208201516110196020850182610fe3565b50505050565b5f6040820190506110325f830184610ff2565b92915050565b5f8115159050919050565b61104c81611038565b82525050565b61105b81610f3d565b82525050565b608082015f8201516110755f850182610fe3565b5060208201516110886020850182611043565b50604082015161109b6040850182611052565b5060608201516110ae6060850182610fe3565b50505050565b5f6080820190506110c75f830184611061565b92915050565b6110d681610fcb565b82525050565b5f6020820190506110ef5f8301846110cd565b92915050565b7f4e487b71000000000000000000000000000000000000000000000000000000005f52603260045260245ffd5b7f4e487b71000000000000000000000000000000000000000000000000000000005f52601160045260245ffd5b5f61115982610ec0565b915061116483610ec0565b925082820190508082111561117c5761117b611122565b5b92915050565b5f61118c82610ec0565b91507fffffffffffffffffffffffffffffffffffffffffffffffffffffffffffffffff82036111be576111bd611122565b5b60018201905091905056fea2646970667358221220ce9ab504112e0ff2426e25bf973d68ff2049c4b4892c170fb0250679cdf8710464736f6c634300081b0033",
					"opcodes": "PUSH1 0x80 PUSH1 0x40 MSTORE CALLVALUE DUP1 ISZERO PUSH2 0xF JUMPI PUSH0 PUSH0 REVERT JUMPDEST POP PUSH1 0x40 MLOAD PUSH2 0x1575 CODESIZE SUB DUP1 PUSH2 0x1575 DUP4 CODECOPY DUP2 DUP2 ADD PUSH1 0x40 MSTORE DUP2 ADD SWAP1 PUSH2 0x31 SWAP2 SWAP1 PUSH2 0x2F5 JUMP JUMPDEST CALLER PUSH0 PUSH0 PUSH2 0x100 EXP DUP2 SLOAD DUP2 PUSH20 0xFFFFFFFFFFFFFFFFFFFFFFFFFFFFFFFFFFFFFFFF MUL NOT AND SWAP1 DUP4 PUSH20 0xFFFFFFFFFFFFFFFFFFFFFFFFFFFFFFFFFFFFFFFF AND MUL OR SWAP1 SSTORE POP PUSH1 0x1 DUP1 PUSH0 PUSH0 PUSH0 SWAP1 SLOAD SWAP1 PUSH2 0x100 EXP SWAP1 DIV PUSH20 0xFFFFFFFFFFFFFFFFFFFFFFFFFFFFFFFFFFFFFFFF AND PUSH20 0xFFFFFFFFFFFFFFFFFFFFFFFFFFFFFFFFFFFFFFFF AND PUSH20 0xFFFFFFFFFFFFFFFFFFFFFFFFFFFFFFFFFFFFFFFF AND DUP2 MSTORE PUSH1 0x20 ADD SWAP1 DUP2 MSTORE PUSH1 0x20 ADD PUSH0 KECCAK256 PUSH0 ADD DUP2 SWAP1 SSTORE POP PUSH0 PUSH0 SWAP1 POP JUMPDEST DUP2 MLOAD DUP2 LT ISZERO PUSH2 0x15A JUMPI PUSH1 0x2 PUSH1 0x40 MLOAD DUP1 PUSH1 0x40 ADD PUSH1 0x40 MSTORE DUP1 DUP5 DUP5 DUP2 MLOAD DUP2 LT PUSH2 0x102 JUMPI PUSH2 0x101 PUSH2 0x33C JUMP JUMPDEST JUMPDEST PUSH1 0x20 MUL PUSH1 0x20 ADD ADD MLOAD DUP2 MSTORE PUSH1 0x20 ADD PUSH0 DUP2 MSTORE POP SWAP1 DUP1 PUSH1 0x1 DUP2 SLOAD ADD DUP1 DUP3 SSTORE DUP1 SWAP2 POP POP PUSH1 0x1 SWAP1 SUB SWAP1 PUSH0 MSTORE PUSH1 0x20 PUSH0 KECCAK256 SWAP1 PUSH1 0x2 MUL ADD PUSH0 SWAP1 SWAP2 SWAP1 SWAP2 SWAP1 SWAP2 POP PUSH0 DUP3 ADD MLOAD DUP2 PUSH0 ADD SSTORE PUSH1 0x20 DUP3 ADD MLOAD DUP2 PUSH1 0x1 ADD SSTORE POP POP DUP1 DUP1 PUSH1 0x1 ADD SWAP2 POP POP PUSH2 0xD9 JUMP JUMPDEST POP POP PUSH2 0x369 JUMP JUMPDEST PUSH0 PUSH1 0x40 MLOAD SWAP1 POP SWAP1 JUMP JUMPDEST PUSH0 PUSH0 REVERT JUMPDEST PUSH0 PUSH0 REVERT JUMPDEST PUSH0 PUSH0 REVERT JUMPDEST PUSH0 PUSH1 0x1F NOT PUSH1 0x1F DUP4 ADD AND SWAP1 POP SWAP2 SWAP1 POP JUMP JUMPDEST PUSH32 0x4E487B7100000000000000000000000000000000000000000000000000000000 PUSH0 MSTORE PUSH1 0x41 PUSH1 0x4 MSTORE PUSH1 0x24 PUSH0 REVERT JUMPDEST PUSH2 0x1BC DUP3 PUSH2 0x176 JUMP JUMPDEST DUP2 ADD DUP2 DUP2 LT PUSH8 0xFFFFFFFFFFFFFFFF DUP3 GT OR ISZERO PUSH2 0x1DB JUMPI PUSH2 0x1DA PUSH2 0x186 JUMP JUMPDEST JUMPDEST DUP1 PUSH1 0x40 MSTORE POP POP POP JUMP JUMPDEST PUSH0 PUSH2 0x1ED PUSH2 0x161 JUMP JUMPDEST SWAP1 POP PUSH2 0x1F9 DUP3 DUP3 PUSH2 0x1B3 JUMP JUMPDEST SWAP2 SWAP1 POP JUMP JUMPDEST PUSH0 PUSH8 0xFFFFFFFFFFFFFFFF DUP3 GT ISZERO PUSH2 0x218 JUMPI PUSH2 0x217 PUSH2 0x186 JUMP JUMPDEST JUMPDEST PUSH1 0x20 DUP3 MUL SWAP1 POP PUSH1 0x20 DUP2 ADD SWAP1 POP SWAP2 SWAP1 POP JUMP JUMPDEST PUSH0 PUSH0 REVERT JUMPDEST PUSH0 DUP2 SWAP1 POP SWAP2 SWAP1 POP JUMP JUMPDEST PUSH2 0x23F DUP2 PUSH2 0x22D JUMP JUMPDEST DUP2 EQ PUSH2 0x249 JUMPI PUSH0 PUSH0 REVERT JUMPDEST POP JUMP JUMPDEST PUSH0 DUP2 MLOAD SWAP1 POP PUSH2 0x25A DUP2 PUSH2 0x236 JUMP JUMPDEST SWAP3 SWAP2 POP POP JUMP JUMPDEST PUSH0 PUSH2 0x272 PUSH2 0x26D DUP5 PUSH2 0x1FE JUMP JUMPDEST PUSH2 0x1E4 JUMP JUMPDEST SWAP1 POP DUP1 DUP4 DUP3 MSTORE PUSH1 0x20 DUP3 ADD SWAP1 POP PUSH1 0x20 DUP5 MUL DUP4 ADD DUP6 DUP2 GT ISZERO PUSH2 0x295 JUMPI PUSH2 0x294 PUSH2 0x229 JUMP JUMPDEST JUMPDEST DUP4 JUMPDEST DUP2 DUP2 LT ISZERO PUSH2 0x2BE JUMPI DUP1 PUSH2 0x2AA DUP9 DUP3 PUSH2 0x24C JUMP JUMPDEST DUP5 MSTORE PUSH1 0x20 DUP5 ADD SWAP4 POP POP PUSH1 0x20 DUP2 ADD SWAP1 POP PUSH2 0x297 JUMP JUMPDEST POP POP POP SWAP4 SWAP3 POP POP POP JUMP JUMPDEST PUSH0 DUP3 PUSH1 0x1F DUP4 ADD SLT PUSH2 0x2DC JUMPI PUSH2 0x2DB PUSH2 0x172 JUMP JUMPDEST JUMPDEST DUP2 MLOAD PUSH2 0x2EC DUP5 DUP3 PUSH1 0x20 DUP7 ADD PUSH2 0x260 JUMP JUMPDEST SWAP2 POP POP SWAP3 SWAP2 POP POP JUMP JUMPDEST PUSH0 PUSH1 0x20 DUP3 DUP5 SUB SLT ISZERO PUSH2 0x30A JUMPI PUSH2 0x309 PUSH2 0x16A JUMP JUMPDEST JUMPDEST PUSH0 DUP3 ADD MLOAD PUSH8 0xFFFFFFFFFFFFFFFF DUP2 GT ISZERO PUSH2 0x327 JUMPI PUSH2 0x326 PUSH2 0x16E JUMP JUMPDEST JUMPDEST PUSH2 0x333 DUP5 DUP3 DUP6 ADD PUSH2 0x2C8 JUMP JUMPDEST SWAP2 POP POP SWAP3 SWAP2 POP POP JUMP JUMPDEST PUSH32 0x4E487B7100000000000000000000000000000000000000000000000000000000 PUSH0 MSTORE PUSH1 0x32 PUSH1 0x4 MSTORE PUSH1 0x24 PUSH0 REVERT JUMPDEST PUSH2 0x11FF DUP1 PUSH2 0x376 PUSH0 CODECOPY PUSH0 RETURN INVALID PUSH1 0x80 PUSH1 0x40 MSTORE CALLVALUE DUP1 ISZERO PUSH2 0xF JUMPI PUSH0 PUSH0 REVERT JUMPDEST POP PUSH1 0x4 CALLDATASIZE LT PUSH2 0x7B JUMPI PUSH0 CALLDATALOAD PUSH1 0xE0 SHR DUP1 PUSH4 0x9E7E2B09 GT PUSH2 0x59 JUMPI DUP1 PUSH4 0x9E7E2B09 EQ PUSH2 0xD3 JUMPI DUP1 PUSH4 0xC7F758A8 EQ PUSH2 0xF1 JUMPI DUP1 PUSH4 0xD4F50F98 EQ PUSH2 0x121 JUMPI DUP1 PUSH4 0xE2BA53F0 EQ PUSH2 0x151 JUMPI PUSH2 0x7B JUMP JUMPDEST DUP1 PUSH4 0x121B93F EQ PUSH2 0x7F JUMPI DUP1 PUSH4 0x5C19A95C EQ PUSH2 0x9B JUMPI DUP1 PUSH4 0x9E7B8D61 EQ PUSH2 0xB7 JUMPI JUMPDEST PUSH0 PUSH0 REVERT JUMPDEST PUSH2 0x99 PUSH1 0x4 DUP1 CALLDATASIZE SUB DUP2 ADD SWAP1 PUSH2 0x94 SWAP2 SWAP1 PUSH2 0xEF3 JUMP JUMPDEST PUSH2 0x16F JUMP JUMPDEST STOP JUMPDEST PUSH2 0xB5 PUSH1 0x4 DUP1 CALLDATASIZE SUB DUP2 ADD SWAP1 PUSH2 0xB0 SWAP2 SWAP1 PUSH2 0xF78 JUMP JUMPDEST PUSH2 0x3C0 JUMP JUMPDEST STOP JUMPDEST PUSH2 0xD1 PUSH1 0x4 DUP1 CALLDATASIZE SUB DUP2 ADD SWAP1 PUSH2 0xCC SWAP2 SWAP1 PUSH2 0xF78 JUMP JUMPDEST PUSH2 0x8FF JUMP JUMPDEST STOP JUMPDEST PUSH2 0xDB PUSH2 0xAC7 JUMP JUMPDEST PUSH1 0x40 MLOAD PUSH2 0xE8 SWAP2 SWAP1 PUSH2 0xFB2 JUMP JUMPDEST PUSH1 0x40 MLOAD DUP1 SWAP2 SUB SWAP1 RETURN JUMPDEST PUSH2 0x10B PUSH1 0x4 DUP1 CALLDATASIZE SUB DUP2 ADD SWAP1 PUSH2 0x106 SWAP2 SWAP1 PUSH2 0xEF3 JUMP JUMPDEST PUSH2 0xAEE JUMP JUMPDEST PUSH1 0x40 MLOAD PUSH2 0x118 SWAP2 SWAP1 PUSH2 0x101F JUMP JUMPDEST PUSH1 0x40 MLOAD DUP1 SWAP2 SUB SWAP1 RETURN JUMPDEST PUSH2 0x13B PUSH1 0x4 DUP1 CALLDATASIZE SUB DUP2 ADD SWAP1 PUSH2 0x136 SWAP2 SWAP1 PUSH2 0xF78 JUMP JUMPDEST PUSH2 0xB3B JUMP JUMPDEST PUSH1 0x40 MLOAD PUSH2 0x148 SWAP2 SWAP1 PUSH2 0x10B4 JUMP JUMPDEST PUSH1 0x40 MLOAD DUP1 SWAP2 SUB SWAP1 RETURN JUMPDEST PUSH2 0x159 PUSH2 0xC9A JUMP JUMPDEST PUSH1 0x40 MLOAD PUSH2 0x166 SWAP2 SWAP1 PUSH2 0x10DC JUMP JUMPDEST PUSH1 0x40 MLOAD DUP1 SWAP2 SUB SWAP1 RETURN JUMPDEST PUSH0 PUSH1 0x1 PUSH0 CALLER PUSH20 0xFFFFFFFFFFFFFFFFFFFFFFFFFFFFFFFFFFFFFFFF AND PUSH20 0xFFFFFFFFFFFFFFFFFFFFFFFFFFFFFFFFFFFFFFFF AND DUP2 MSTORE PUSH1 0x20 ADD SWAP1 DUP2 MSTORE PUSH1 0x20 ADD PUSH0 KECCAK256 PUSH0 ADD SLOAD GT PUSH2 0x1E7 JUMPI PUSH1 0x40 MLOAD PUSH32 0x4E71FDA00000000000000000000000000000000000000000000000000000000 DUP2 MSTORE PUSH1 0x4 ADD PUSH1 0x40 MLOAD DUP1 SWAP2 SUB SWAP1 REVERT JUMPDEST PUSH1 0x1 PUSH0 CALLER PUSH20 0xFFFFFFFFFFFFFFFFFFFFFFFFFFFFFFFFFFFFFFFF AND PUSH20 0xFFFFFFFFFFFFFFFFFFFFFFFFFFFFFFFFFFFFFFFF AND DUP2 MSTORE PUSH1 0x20 ADD SWAP1 DUP2 MSTORE PUSH1 0x20 ADD PUSH0 KECCAK256 PUSH1 0x1 ADD PUSH0 SWAP1 SLOAD SWAP1 PUSH2 0x100 EXP SWAP1 DIV PUSH1 0xFF AND ISZERO PUSH2 0x26B JUMPI PUSH1 0x40 MLOAD PUSH32 0x715A868600000000000000000000000000000000000000000000000000000000 DUP2 MSTORE PUSH1 0x4 ADD PUSH1 0x40 MLOAD DUP1 SWAP2 SUB SWAP1 REVERT JUMPDEST PUSH1 0x2 DUP1 SLOAD SWAP1 POP DUP2 LT PUSH2 0x2A9 JUMPI PUSH1 0x40 MLOAD PUSH32 0x6E1831200000000000000000000000000000000000000000000000000000000 DUP2 MSTORE PUSH1 0x4 ADD PUSH1 0x40 MLOAD DUP1 SWAP2 SUB SWAP1 REVERT JUMPDEST DUP1 PUSH1 0x1 PUSH0 CALLER PUSH20 0xFFFFFFFFFFFFFFFFFFFFFFFFFFFFFFFFFFFFFFFF AND PUSH20 0xFFFFFFFFFFFFFFFFFFFFFFFFFFFFFFFFFFFFFFFF AND DUP2 MSTORE PUSH1 0x20 ADD SWAP1 DUP2 MSTORE PUSH1 0x20 ADD PUSH0 KECCAK256 PUSH1 0x2 ADD DUP2 SWAP1 SSTORE POP PUSH1 0x1 PUSH0 CALLER PUSH20 0xFFFFFFFFFFFFFFFFFFFFFFFFFFFFFFFFFFFFFFFF AND PUSH20 0xFFFFFFFFFFFFFFFFFFFFFFFFFFFFFFFFFFFFFFFF AND DUP2 MSTORE PUSH1 0x20 ADD SWAP1 DUP2 MSTORE PUSH1 0x20 ADD PUSH0 KECCAK256 PUSH0 ADD SLOAD PUSH1 0x2 DUP3 DUP2 SLOAD DUP2 LT PUSH2 0x342 JUMPI PUSH2 0x341 PUSH2 0x10F5 JUMP JUMPDEST JUMPDEST SWAP1 PUSH0 MSTORE PUSH1 0x20 PUSH0 KECCAK256 SWAP1 PUSH1 0x2 MUL ADD PUSH1 0x1 ADD PUSH0 DUP3 DUP3 SLOAD PUSH2 0x35F SWAP2 SWAP1 PUSH2 0x114F JUMP JUMPDEST SWAP3 POP POP DUP2 SWAP1 SSTORE POP PUSH1 0x1 DUP1 PUSH0 CALLER PUSH20 0xFFFFFFFFFFFFFFFFFFFFFFFFFFFFFFFFFFFFFFFF AND PUSH20 0xFFFFFFFFFFFFFFFFFFFFFFFFFFFFFFFFFFFFFFFF AND DUP2 MSTORE PUSH1 0x20 ADD SWAP1 DUP2 MSTORE PUSH1 0x20 ADD PUSH0 KECCAK256 PUSH1 0x1 ADD PUSH0 PUSH2 0x100 EXP DUP2 SLOAD DUP2 PUSH1 0xFF MUL NOT AND SWAP1 DUP4 ISZERO ISZERO MUL OR SWAP1 SSTORE POP POP JUMP JUMPDEST PUSH0 PUSH1 0x1 PUSH0 CALLER PUSH20 0xFFFFFFFFFFFFFFFFFFFFFFFFFFFFFFFFFFFFFFFF AND PUSH20 0xFFFFFFFFFFFFFFFFFFFFFFFFFFFFFFFFFFFFFFFF AND DUP2 MSTORE PUSH1 0x20 ADD SWAP1 DUP2 MSTORE PUSH1 0x20 ADD PUSH0 KECCAK256 PUSH0 ADD SLOAD GT PUSH2 0x438 JUMPI PUSH1 0x40 MLOAD PUSH32 0x4E71FDA00000000000000000000000000000000000000000000000000000000 DUP2 MSTORE PUSH1 0x4 ADD PUSH1 0x40 MLOAD DUP1 SWAP2 SUB SWAP1 REVERT JUMPDEST PUSH1 0x1 PUSH0 CALLER PUSH20 0xFFFFFFFFFFFFFFFFFFFFFFFFFFFFFFFFFFFFFFFF AND PUSH20 0xFFFFFFFFFFFFFFFFFFFFFFFFFFFFFFFFFFFFFFFF AND DUP2 MSTORE PUSH1 0x20 ADD SWAP1 DUP2 MSTORE PUSH1 0x20 ADD PUSH0 KECCAK256 PUSH1 0x1 ADD PUSH0 SWAP1 SLOAD SWAP1 PUSH2 0x100 EXP SWAP1 DIV PUSH1 0xFF AND ISZERO PUSH2 0x4BC JUMPI PUSH1 0x40 MLOAD PUSH32 0x715A868600000000000000000000000000000000000000000000000000000000 DUP2 MSTORE PUSH1 0x4 ADD PUSH1 0x40 MLOAD DUP1 SWAP2 SUB SWAP1 REVERT JUMPDEST CALLER PUSH20 0xFFFFFFFFFFFFFFFFFFFFFFFFFFFFFFFFFFFFFFFF AND DUP2 PUSH20 0xFFFFFFFFFFFFFFFFFFFFFFFFFFFFFFFFFFFFFFFF AND SUB PUSH2 0x521 JUMPI PUSH1 0x40 MLOAD PUSH32 0x1C073E4800000000000000000000000000000000000000000000000000000000 DUP2 MSTORE PUSH1 0x4 ADD PUSH1 0x40 MLOAD DUP1 SWAP2 SUB SWAP1 REVERT JUMPDEST JUMPDEST PUSH0 PUSH20 0xFFFFFFFFFFFFFFFFFFFFFFFFFFFFFFFFFFFFFFFF AND PUSH1 0x1 PUSH0 DUP4 PUSH20 0xFFFFFFFFFFFFFFFFFFFFFFFFFFFFFFFFFFFFFFFF AND PUSH20 0xFFFFFFFFFFFFFFFFFFFFFFFFFFFFFFFFFFFFFFFF AND DUP2 MSTORE PUSH1 0x20 ADD SWAP1 DUP2 MSTORE PUSH1 0x20 ADD PUSH0 KECCAK256 PUSH1 0x1 ADD PUSH1 0x1 SWAP1 SLOAD SWAP1 PUSH2 0x100 EXP SWAP1 DIV PUSH20 0xFFFFFFFFFFFFFFFFFFFFFFFFFFFFFFFFFFFFFFFF AND PUSH20 0xFFFFFFFFFFFFFFFFFFFFFFFFFFFFFFFFFFFFFFFF AND EQ PUSH2 0x682 JUMPI PUSH1 0x1 PUSH0 DUP3 PUSH20 0xFFFFFFFFFFFFFFFFFFFFFFFFFFFFFFFFFFFFFFFF AND PUSH20 0xFFFFFFFFFFFFFFFFFFFFFFFFFFFFFFFFFFFFFFFF AND DUP2 MSTORE PUSH1 0x20 ADD SWAP1 DUP2 MSTORE PUSH1 0x20 ADD PUSH0 KECCAK256 PUSH1 0x1 ADD PUSH1 0x1 SWAP1 SLOAD SWAP1 PUSH2 0x100 EXP SWAP1 DIV PUSH20 0xFFFFFFFFFFFFFFFFFFFFFFFFFFFFFFFFFFFFFFFF AND SWAP1 POP DUP1 PUSH20 0xFFFFFFFFFFFFFFFFFFFFFFFFFFFFFFFFFFFFFFFF AND CALLER PUSH20 0xFFFFFFFFFFFFFFFFFFFFFFFFFFFFFFFFFFFFFFFF AND SUB PUSH2 0x67D JUMPI PUSH1 0x40 MLOAD PUSH32 0x5038B3D100000000000000000000000000000000000000000000000000000000 DUP2 MSTORE PUSH1 0x4 ADD PUSH1 0x40 MLOAD DUP1 SWAP2 SUB SWAP1 REVERT JUMPDEST PUSH2 0x522 JUMP JUMPDEST PUSH1 0x1 DUP1 PUSH0 CALLER PUSH20 0xFFFFFFFFFFFFFFFFFFFFFFFFFFFFFFFFFFFFFFFF AND PUSH20 0xFFFFFFFFFFFFFFFFFFFFFFFFFFFFFFFFFFFFFFFF AND DUP2 MSTORE PUSH1 0x20 ADD SWAP1 DUP2 MSTORE PUSH1 0x20 ADD PUSH0 KECCAK256 PUSH1 0x1 ADD PUSH0 PUSH2 0x100 EXP DUP2 SLOAD DUP2 PUSH1 0xFF MUL NOT AND SWAP1 DUP4 ISZERO ISZERO MUL OR SWAP1 SSTORE POP DUP1 PUSH1 0x1 PUSH0 CALLER PUSH20 0xFFFFFFFFFFFFFFFFFFFFFFFFFFFFFFFFFFFFFFFF AND PUSH20 0xFFFFFFFFFFFFFFFFFFFFFFFFFFFFFFFFFFFFFFFF AND DUP2 MSTORE PUSH1 0x20 ADD SWAP1 DUP2 MSTORE PUSH1 0x20 ADD PUSH0 KECCAK256 PUSH1 0x1 ADD PUSH1 0x1 PUSH2 0x100 EXP DUP2 SLOAD DUP2 PUSH20 0xFFFFFFFFFFFFFFFFFFFFFFFFFFFFFFFFFFFFFFFF MUL NOT AND SWAP1 DUP4 PUSH20 0xFFFFFFFFFFFFFFFFFFFFFFFFFFFFFFFFFFFFFFFF AND MUL OR SWAP1 SSTORE POP PUSH1 0x1 PUSH0 DUP3 PUSH20 0xFFFFFFFFFFFFFFFFFFFFFFFFFFFFFFFFFFFFFFFF AND PUSH20 0xFFFFFFFFFFFFFFFFFFFFFFFFFFFFFFFFFFFFFFFF AND DUP2 MSTORE PUSH1 0x20 ADD SWAP1 DUP2 MSTORE PUSH1 0x20 ADD PUSH0 KECCAK256 PUSH1 0x1 ADD PUSH0 SWAP1 SLOAD SWAP1 PUSH2 0x100 EXP SWAP1 DIV PUSH1 0xFF AND ISZERO PUSH2 0x867 JUMPI PUSH1 0x1 PUSH0 CALLER PUSH20 0xFFFFFFFFFFFFFFFFFFFFFFFFFFFFFFFFFFFFFFFF AND PUSH20 0xFFFFFFFFFFFFFFFFFFFFFFFFFFFFFFFFFFFFFFFF AND DUP2 MSTORE PUSH1 0x20 ADD SWAP1 DUP2 MSTORE PUSH1 0x20 ADD PUSH0 KECCAK256 PUSH0 ADD SLOAD PUSH1 0x2 PUSH1 0x1 PUSH0 DUP5 PUSH20 0xFFFFFFFFFFFFFFFFFFFFFFFFFFFFFFFFFFFFFFFF AND PUSH20 0xFFFFFFFFFFFFFFFFFFFFFFFFFFFFFFFFFFFFFFFF AND DUP2 MSTORE PUSH1 0x20 ADD SWAP1 DUP2 MSTORE PUSH1 0x20 ADD PUSH0 KECCAK256 PUSH1 0x2 ADD SLOAD DUP2 SLOAD DUP2 LT PUSH2 0x83E JUMPI PUSH2 0x83D PUSH2 0x10F5 JUMP JUMPDEST JUMPDEST SWAP1 PUSH0 MSTORE PUSH1 0x20 PUSH0 KECCAK256 SWAP1 PUSH1 0x2 MUL ADD PUSH1 0x1 ADD PUSH0 DUP3 DUP3 SLOAD PUSH2 0x85B SWAP2 SWAP1 PUSH2 0x114F JUMP JUMPDEST SWAP3 POP POP DUP2 SWAP1 SSTORE POP PUSH2 0x8FC JUMP JUMPDEST PUSH1 0x1 PUSH0 CALLER PUSH20 0xFFFFFFFFFFFFFFFFFFFFFFFFFFFFFFFFFFFFFFFF AND PUSH20 0xFFFFFFFFFFFFFFFFFFFFFFFFFFFFFFFFFFFFFFFF AND DUP2 MSTORE PUSH1 0x20 ADD SWAP1 DUP2 MSTORE PUSH1 0x20 ADD PUSH0 KECCAK256 PUSH0 ADD SLOAD PUSH1 0x1 PUSH0 DUP4 PUSH20 0xFFFFFFFFFFFFFFFFFFFFFFFFFFFFFFFFFFFFFFFF AND PUSH20 0xFFFFFFFFFFFFFFFFFFFFFFFFFFFFFFFFFFFFFFFF AND DUP2 MSTORE PUSH1 0x20 ADD SWAP1 DUP2 MSTORE PUSH1 0x20 ADD PUSH0 KECCAK256 PUSH0 ADD PUSH0 DUP3 DUP3 SLOAD PUSH2 0x8F4 SWAP2 SWAP1 PUSH2 0x114F JUMP JUMPDEST SWAP3 POP POP DUP2 SWAP1 SSTORE POP JUMPDEST POP JUMP JUMPDEST PUSH0 PUSH0 SWAP1 SLOAD SWAP1 PUSH2 0x100 EXP SWAP1 DIV PUSH20 0xFFFFFFFFFFFFFFFFFFFFFFFFFFFFFFFFFFFFFFFF AND PUSH20 0xFFFFFFFFFFFFFFFFFFFFFFFFFFFFFFFFFFFFFFFF AND CALLER PUSH20 0xFFFFFFFFFFFFFFFFFFFFFFFFFFFFFFFFFFFFFFFF AND EQ PUSH2 0x984 JUMPI PUSH1 0x40 MLOAD PUSH32 0x571149200000000000000000000000000000000000000000000000000000000 DUP2 MSTORE PUSH1 0x4 ADD PUSH1 0x40 MLOAD DUP1 SWAP2 SUB SWAP1 REVERT JUMPDEST PUSH1 0x1 PUSH0 DUP3 PUSH20 0xFFFFFFFFFFFFFFFFFFFFFFFFFFFFFFFFFFFFFFFF AND PUSH20 0xFFFFFFFFFFFFFFFFFFFFFFFFFFFFFFFFFFFFFFFF AND DUP2 MSTORE PUSH1 0x20 ADD SWAP1 DUP2 MSTORE PUSH1 0x20 ADD PUSH0 KECCAK256 PUSH1 0x1 ADD PUSH0 SWAP1 SLOAD SWAP1 PUSH2 0x100 EXP SWAP1 DIV PUSH1 0xFF AND ISZERO PUSH2 0xA08 JUMPI PUSH1 0x40 MLOAD PUSH32 0x715A868600000000000000000000000000000000000000000000000000000000 DUP2 MSTORE PUSH1 0x4 ADD PUSH1 0x40 MLOAD DUP1 SWAP2 SUB SWAP1 REVERT JUMPDEST PUSH0 PUSH1 0x1 PUSH0 DUP4 PUSH20 0xFFFFFFFFFFFFFFFFFFFFFFFFFFFFFFFFFFFFFFFF AND PUSH20 0xFFFFFFFFFFFFFFFFFFFFFFFFFFFFFFFFFFFFFFFF AND DUP2 MSTORE PUSH1 0x20 ADD SWAP1 DUP2 MSTORE PUSH1 0x20 ADD PUSH0 KECCAK256 PUSH0 ADD SLOAD EQ PUSH2 0xA80 JUMPI PUSH1 0x40 MLOAD PUSH32 0xD98E98CE00000000000000000000000000000000000000000000000000000000 DUP2 MSTORE PUSH1 0x4 ADD PUSH1 0x40 MLOAD DUP1 SWAP2 SUB SWAP1 REVERT JUMPDEST PUSH1 0x1 DUP1 PUSH0 DUP4 PUSH20 0xFFFFFFFFFFFFFFFFFFFFFFFFFFFFFFFFFFFFFFFF AND PUSH20 0xFFFFFFFFFFFFFFFFFFFFFFFFFFFFFFFFFFFFFFFF AND DUP2 MSTORE PUSH1 0x20 ADD SWAP1 DUP2 MSTORE PUSH1 0x20 ADD PUSH0 KECCAK256 PUSH0 ADD DUP2 SWAP1 SSTORE POP POP JUMP JUMPDEST PUSH0 PUSH0 PUSH0 SWAP1 SLOAD SWAP1 PUSH2 0x100 EXP SWAP1 DIV PUSH20 0xFFFFFFFFFFFFFFFFFFFFFFFFFFFFFFFFFFFFFFFF AND SWAP1 POP SWAP1 JUMP JUMPDEST PUSH2 0xAF6 PUSH2 0xE68 JUMP JUMPDEST PUSH1 0x2 DUP3 DUP2 SLOAD DUP2 LT PUSH2 0xB0A JUMPI PUSH2 0xB09 PUSH2 0x10F5 JUMP JUMPDEST JUMPDEST SWAP1 PUSH0 MSTORE PUSH1 0x20 PUSH0 KECCAK256 SWAP1 PUSH1 0x2 MUL ADD PUSH1 0x40 MLOAD DUP1 PUSH1 0x40 ADD PUSH1 0x40 MSTORE SWAP1 DUP2 PUSH0 DUP3 ADD SLOAD DUP2 MSTORE PUSH1 0x20 ADD PUSH1 0x1 DUP3 ADD SLOAD DUP2 MSTORE POP POP SWAP1 POP SWAP2 SWAP1 POP JUMP JUMPDEST PUSH2 0xB43 PUSH2 0xE80 JUMP JUMPDEST PUSH0 PUSH0 SWAP1 SLOAD SWAP1 PUSH2 0x100 EXP SWAP1 DIV PUSH20 0xFFFFFFFFFFFFFFFFFFFFFFFFFFFFFFFFFFFFFFFF AND PUSH20 0xFFFFFFFFFFFFFFFFFFFFFFFFFFFFFFFFFFFFFFFF AND CALLER PUSH20 0xFFFFFFFFFFFFFFFFFFFFFFFFFFFFFFFFFFFFFFFF AND EQ PUSH2 0xBC8 JUMPI PUSH1 0x40 MLOAD PUSH32 0x571149200000000000000000000000000000000000000000000000000000000 DUP2 MSTORE PUSH1 0x4 ADD PUSH1 0x40 MLOAD DUP1 SWAP2 SUB SWAP1 REVERT JUMPDEST PUSH1 0x1 PUSH0 DUP4 PUSH20 0xFFFFFFFFFFFFFFFFFFFFFFFFFFFFFFFFFFFFFFFF AND PUSH20 0xFFFFFFFFFFFFFFFFFFFFFFFFFFFFFFFFFFFFFFFF AND DUP2 MSTORE PUSH1 0x20 ADD SWAP1 DUP2 MSTORE PUSH1 0x20 ADD PUSH0 KECCAK256 PUSH1 0x40 MLOAD DUP1 PUSH1 0x80 ADD PUSH1 0x40 MSTORE SWAP1 DUP2 PUSH0 DUP3 ADD SLOAD DUP2 MSTORE PUSH1 0x20 ADD PUSH1 0x1 DUP3 ADD PUSH0 SWAP1 SLOAD SWAP1 PUSH2 0x100 EXP SWAP1 DIV PUSH1 0xFF AND ISZERO ISZERO ISZERO ISZERO DUP2 MSTORE PUSH1 0x20 ADD PUSH1 0x1 DUP3 ADD PUSH1 0x1 SWAP1 SLOAD SWAP1 PUSH2 0x100 EXP SWAP1 DIV PUSH20 0xFFFFFFFFFFFFFFFFFFFFFFFFFFFFFFFFFFFFFFFF AND PUSH20 0xFFFFFFFFFFFFFFFFFFFFFFFFFFFFFFFFFFFFFFFF AND PUSH20 0xFFFFFFFFFFFFFFFFFFFFFFFFFFFFFFFFFFFFFFFF AND DUP2 MSTORE PUSH1 0x20 ADD PUSH1 0x2 DUP3 ADD SLOAD DUP2 MSTORE POP POP SWAP1 POP SWAP2 SWAP1 POP JUMP JUMPDEST PUSH0 PUSH1 0x2 PUSH2 0xCA5 PUSH2 0xCCA JUMP JUMPDEST DUP2 SLOAD DUP2 LT PUSH2 0xCB6 JUMPI PUSH2 0xCB5 PUSH2 0x10F5 JUMP JUMPDEST JUMPDEST SWAP1 PUSH0 MSTORE PUSH1 0x20 PUSH0 KECCAK256 SWAP1 PUSH1 0x2 MUL ADD PUSH0 ADD SLOAD SWAP1 POP SWAP1 JUMP JUMPDEST PUSH0 PUSH2 0xCD3 PUSH2 0xD8F JUMP JUMPDEST ISZERO PUSH2 0xD0A JUMPI PUSH1 0x40 MLOAD PUSH32 0x3474C9A500000000000000000000000000000000000000000000000000000000 DUP2 MSTORE PUSH1 0x4 ADD PUSH1 0x40 MLOAD DUP1 SWAP2 SUB SWAP1 REVERT JUMPDEST PUSH0 PUSH0 SWAP1 POP PUSH0 PUSH0 SWAP1 POP PUSH0 PUSH0 SWAP1 POP JUMPDEST PUSH1 0x2 DUP1 SLOAD SWAP1 POP DUP2 LT ISZERO PUSH2 0xD86 JUMPI DUP3 PUSH1 0x2 DUP3 DUP2 SLOAD DUP2 LT PUSH2 0xD39 JUMPI PUSH2 0xD38 PUSH2 0x10F5 JUMP JUMPDEST JUMPDEST SWAP1 PUSH0 MSTORE PUSH1 0x20 PUSH0 KECCAK256 SWAP1 PUSH1 0x2 MUL ADD PUSH1 0x1 ADD SLOAD GT ISZERO PUSH2 0xD79 JUMPI PUSH1 0x2 DUP2 DUP2 SLOAD DUP2 LT PUSH2 0xD63 JUMPI PUSH2 0xD62 PUSH2 0x10F5 JUMP JUMPDEST JUMPDEST SWAP1 PUSH0 MSTORE PUSH1 0x20 PUSH0 KECCAK256 SWAP1 PUSH1 0x2 MUL ADD PUSH1 0x1 ADD SLOAD SWAP3 POP DUP1 SWAP2 POP JUMPDEST DUP1 DUP1 PUSH1 0x1 ADD SWAP2 POP POP PUSH2 0xD17 JUMP JUMPDEST POP DUP1 SWAP3 POP POP POP SWAP1 JUMP JUMPDEST PUSH0 PUSH0 PUSH0 PUSH0 PUSH0 SWAP1 POP JUMPDEST PUSH1 0x2 DUP1 SLOAD SWAP1 POP DUP2 LT ISZERO PUSH2 0xE03 JUMPI DUP3 PUSH1 0x2 DUP3 DUP2 SLOAD DUP2 LT PUSH2 0xDB9 JUMPI PUSH2 0xDB8 PUSH2 0x10F5 JUMP JUMPDEST JUMPDEST SWAP1 PUSH0 MSTORE PUSH1 0x20 PUSH0 KECCAK256 SWAP1 PUSH1 0x2 MUL ADD PUSH1 0x1 ADD SLOAD GT ISZERO PUSH2 0xDF6 JUMPI PUSH1 0x2 DUP2 DUP2 SLOAD DUP2 LT PUSH2 0xDE3 JUMPI PUSH2 0xDE2 PUSH2 0x10F5 JUMP JUMPDEST JUMPDEST SWAP1 PUSH0 MSTORE PUSH1 0x20 PUSH0 KECCAK256 SWAP1 PUSH1 0x2 MUL ADD PUSH1 0x1 ADD SLOAD SWAP3 POP JUMPDEST DUP1 DUP1 PUSH1 0x1 ADD SWAP2 POP POP PUSH2 0xD97 JUMP JUMPDEST POP PUSH0 PUSH0 SWAP1 POP JUMPDEST PUSH1 0x2 DUP1 SLOAD SWAP1 POP DUP2 LT ISZERO PUSH2 0xE5C JUMPI DUP3 PUSH1 0x2 DUP3 DUP2 SLOAD DUP2 LT PUSH2 0xE2B JUMPI PUSH2 0xE2A PUSH2 0x10F5 JUMP JUMPDEST JUMPDEST SWAP1 PUSH0 MSTORE PUSH1 0x20 PUSH0 KECCAK256 SWAP1 PUSH1 0x2 MUL ADD PUSH1 0x1 ADD SLOAD SUB PUSH2 0xE4F JUMPI DUP2 DUP1 PUSH2 0xE4B SWAP1 PUSH2 0x1182 JUMP JUMPDEST SWAP3 POP POP JUMPDEST DUP1 DUP1 PUSH1 0x1 ADD SWAP2 POP POP PUSH2 0xE09 JUMP JUMPDEST POP PUSH1 0x1 DUP2 GT SWAP3 POP POP POP SWAP1 JUMP JUMPDEST PUSH1 0x40 MLOAD DUP1 PUSH1 0x40 ADD PUSH1 0x40 MSTORE DUP1 PUSH0 DUP2 MSTORE PUSH1 0x20 ADD PUSH0 DUP2 MSTORE POP SWAP1 JUMP JUMPDEST PUSH1 0x40 MLOAD DUP1 PUSH1 0x80 ADD PUSH1 0x40 MSTORE DUP1 PUSH0 DUP2 MSTORE PUSH1 0x20 ADD PUSH0 ISZERO ISZERO DUP2 MSTORE PUSH1 0x20 ADD PUSH0 PUSH20 0xFFFFFFFFFFFFFFFFFFFFFFFFFFFFFFFFFFFFFFFF AND DUP2 MSTORE PUSH1 0x20 ADD PUSH0 DUP2 MSTORE POP SWAP1 JUMP JUMPDEST PUSH0 PUSH0 REVERT JUMPDEST PUSH0 DUP2 SWAP1 POP SWAP2 SWAP1 POP JUMP JUMPDEST PUSH2 0xED2 DUP2 PUSH2 0xEC0 JUMP JUMPDEST DUP2 EQ PUSH2 0xEDC JUMPI PUSH0 PUSH0 REVERT JUMPDEST POP JUMP JUMPDEST PUSH0 DUP2 CALLDATALOAD SWAP1 POP PUSH2 0xEED DUP2 PUSH2 0xEC9 JUMP JUMPDEST SWAP3 SWAP2 POP POP JUMP JUMPDEST PUSH0 PUSH1 0x20 DUP3 DUP5 SUB SLT ISZERO PUSH2 0xF08 JUMPI PUSH2 0xF07 PUSH2 0xEBC JUMP JUMPDEST JUMPDEST PUSH0 PUSH2 0xF15 DUP5 DUP3 DUP6 ADD PUSH2 0xEDF JUMP JUMPDEST SWAP2 POP POP SWAP3 SWAP2 POP POP JUMP JUMPDEST PUSH0 PUSH20 0xFFFFFFFFFFFFFFFFFFFFFFFFFFFFFFFFFFFFFFFF DUP3 AND SWAP1 POP SWAP2 SWAP1 POP JUMP JUMPDEST PUSH0 PUSH2 0xF47 DUP3 PUSH2 0xF1E JUMP JUMPDEST SWAP1 POP SWAP2 SWAP1 POP JUMP JUMPDEST PUSH2 0xF57 DUP2 PUSH2 0xF3D JUMP JUMPDEST DUP2 EQ PUSH2 0xF61 JUMPI PUSH0 PUSH0 REVERT JUMPDEST POP JUMP JUMPDEST PUSH0 DUP2 CALLDATALOAD SWAP1 POP PUSH2 0xF72 DUP2 PUSH2 0xF4E JUMP JUMPDEST SWAP3 SWAP2 POP POP JUMP JUMPDEST PUSH0 PUSH1 0x20 DUP3 DUP5 SUB SLT ISZERO PUSH2 0xF8D JUMPI PUSH2 0xF8C PUSH2 0xEBC JUMP JUMPDEST JUMPDEST PUSH0 PUSH2 0xF9A DUP5 DUP3 DUP6 ADD PUSH2 0xF64 JUMP JUMPDEST SWAP2 POP POP SWAP3 SWAP2 POP POP JUMP JUMPDEST PUSH2 0xFAC DUP2 PUSH2 0xF3D JUMP JUMPDEST DUP3 MSTORE POP POP JUMP JUMPDEST PUSH0 PUSH1 0x20 DUP3 ADD SWAP1 POP PUSH2 0xFC5 PUSH0 DUP4 ADD DUP5 PUSH2 0xFA3 JUMP JUMPDEST SWAP3 SWAP2 POP POP JUMP JUMPDEST PUSH0 DUP2 SWAP1 POP SWAP2 SWAP1 POP JUMP JUMPDEST PUSH2 0xFDD DUP2 PUSH2 0xFCB JUMP JUMPDEST DUP3 MSTORE POP POP JUMP JUMPDEST PUSH2 0xFEC DUP2 PUSH2 0xEC0 JUMP JUMPDEST DUP3 MSTORE POP POP JUMP JUMPDEST PUSH1 0x40 DUP3 ADD PUSH0 DUP3 ADD MLOAD PUSH2 0x1006 PUSH0 DUP6 ADD DUP3 PUSH2 0xFD4 JUMP JUMPDEST POP PUSH1 0x20 DUP3 ADD MLOAD PUSH2 0x1019 PUSH1 0x20 DUP6 ADD DUP3 PUSH2 0xFE3 JUMP JUMPDEST POP POP POP POP JUMP JUMPDEST PUSH0 PUSH1 0x40 DUP3 ADD SWAP1 POP PUSH2 0x1032 PUSH0 DUP4 ADD DUP5 PUSH2 0xFF2 JUMP JUMPDEST SWAP3 SWAP2 POP POP JUMP JUMPDEST PUSH0 DUP2 ISZERO ISZERO SWAP1 POP SWAP2 SWAP1 POP JUMP JUMPDEST PUSH2 0x104C DUP2 PUSH2 0x1038 JUMP JUMPDEST DUP3 MSTORE POP POP JUMP JUMPDEST PUSH2 0x105B DUP2 PUSH2 0xF3D JUMP JUMPDEST DUP3 MSTORE POP POP JUMP JUMPDEST PUSH1 0x80 DUP3 ADD PUSH0 DUP3 ADD MLOAD PUSH2 0x1075 PUSH0 DUP6 ADD DUP3 PUSH2 0xFE3 JUMP JUMPDEST POP PUSH1 0x20 DUP3 ADD MLOAD PUSH2 0x1088 PUSH1 0x20 DUP6 ADD DUP3 PUSH2 0x1043 JUMP JUMPDEST POP PUSH1 0x40 DUP3 ADD MLOAD PUSH2 0x109B PUSH1 0x40 DUP6 ADD DUP3 PUSH2 0x1052 JUMP JUMPDEST POP PUSH1 0x60 DUP3 ADD MLOAD PUSH2 0x10AE PUSH1 0x60 DUP6 ADD DUP3 PUSH2 0xFE3 JUMP JUMPDEST POP POP POP POP JUMP JUMPDEST PUSH0 PUSH1 0x80 DUP3 ADD SWAP1 POP PUSH2 0x10C7 PUSH0 DUP4 ADD DUP5 PUSH2 0x1061 JUMP JUMPDEST SWAP3 SWAP2 POP POP JUMP JUMPDEST PUSH2 0x10D6 DUP2 PUSH2 0xFCB JUMP JUMPDEST DUP3 MSTORE POP POP JUMP JUMPDEST PUSH0 PUSH1 0x20 DUP3 ADD SWAP1 POP PUSH2 0x10EF PUSH0 DUP4 ADD DUP5 PUSH2 0x10CD JUMP JUMPDEST SWAP3 SWAP2 POP POP JUMP JUMPDEST PUSH32 0x4E487B7100000000000000000000000000000000000000000000000000000000 PUSH0 MSTORE PUSH1 0x32 PUSH1 0x4 MSTORE PUSH1 0x24 PUSH0 REVERT JUMPDEST PUSH32 0x4E487B7100000000000000000000000000000000000000000000000000000000 PUSH0 MSTORE PUSH1 0x11 PUSH1 0x4 MSTORE PUSH1 0x24 PUSH0 REVERT JUMPDEST PUSH0 PUSH2 0x1159 DUP3 PUSH2 0xEC0 JUMP JUMPDEST SWAP2 POP PUSH2 0x1164 DUP4 PUSH2 0xEC0 JUMP JUMPDEST SWAP3 POP DUP3 DUP3 ADD SWAP1 POP DUP1 DUP3 GT ISZERO PUSH2 0x117C JUMPI PUSH2 0x117B PUSH2 0x1122 JUMP JUMPDEST JUMPDEST SWAP3 SWAP2 POP POP JUMP JUMPDEST PUSH0 PUSH2 0x118C DUP3 PUSH2 0xEC0 JUMP JUMPDEST SWAP2 POP PUSH32 0xFFFFFFFFFFFFFFFFFFFFFFFFFFFFFFFFFFFFFFFFFFFFFFFFFFFFFFFFFFFFFFFF DUP3 SUB PUSH2 0x11BE JUMPI PUSH2 0x11BD PUSH2 0x1122 JUMP JUMPDEST JUMPDEST PUSH1 0x1 DUP3 ADD SWAP1 POP SWAP2 SWAP1 POP JUMP INVALID LOG2 PUSH5 0x6970667358 0x22 SLT KECCAK256 0xCE SWAP11 0xB5 DIV GT 0x2E 0xF CALLCODE TIMESTAMP PUSH15 0x25BF973D68FF2049C4B4892C170FB0 0x25 MOD PUSH26 0xCDF8710464736F6C634300081B00330000000000000000000000 "
				},
				"gasEstimates": {
					"creation": {
						"codeDepositCost": "921400",
						"executionCost": "infinite",
						"totalCost": "infinite"
					},
					"external": {
						"delegate(address)": "infinite",
						"getChairPerson()": "2514",
						"getProposal(uint256)": "infinite",
						"getVoter(address)": "infinite",
						"giveRightToVote(address)": "29333",
						"vote(uint256)": "infinite",
						"winnerName()": "infinite"
					},
					"internal": {
						"tie()": "infinite",
						"winningProposal()": "infinite"
					}
				},
				"methodIdentifiers": {
					"delegate(address)": "5c19a95c",
					"getChairPerson()": "9e7e2b09",
					"getProposal(uint256)": "c7f758a8",
					"getVoter(address)": "d4f50f98",
					"giveRightToVote(address)": "9e7b8d61",
					"vote(uint256)": "0121b93f",
					"winnerName()": "e2ba53f0"
				}
			},
			"storageLayout": {
				"storage": [
					{
						"astId": 33,
						"contract": "Voting.sol:Voting",
						"label": "chairPerson",
						"offset": 0,
						"slot": "0",
						"type": "t_address"
					},
					{
						"astId": 38,
						"contract": "Voting.sol:Voting",
						"label": "voters",
						"offset": 0,
						"slot": "1",
						"type": "t_mapping(t_address,t_struct(Voter)26_storage)"
					},
					{
						"astId": 42,
						"contract": "Voting.sol:Voting",
						"label": "proposals",
						"offset": 0,
						"slot": "2",
						"type": "t_array(t_struct(Proposal)31_storage)dyn_storage"
					}
				],
				"types": {
					"t_address": {
						"encoding": "inplace",
						"label": "address",
						"numberOfBytes": "20"
					},
					"t_array(t_struct(Proposal)31_storage)dyn_storage": {
						"base": "t_struct(Proposal)31_storage",
						"encoding": "dynamic_array",
						"label": "struct Voting.Proposal[]",
						"numberOfBytes": "32"
					},
					"t_bool": {
						"encoding": "inplace",
						"label": "bool",
						"numberOfBytes": "1"
					},
					"t_bytes32": {
						"encoding": "inplace",
						"label": "bytes32",
						"numberOfBytes": "32"
					},
					"t_mapping(t_address,t_struct(Voter)26_storage)": {
						"encoding": "mapping",
						"key": "t_address",
						"label": "mapping(address => struct Voting.Voter)",
						"numberOfBytes": "32",
						"value": "t_struct(Voter)26_storage"
					},
					"t_struct(Proposal)31_storage": {
						"encoding": "inplace",
						"label": "struct Voting.Proposal",
						"members": [
							{
								"astId": 28,
								"contract": "Voting.sol:Voting",
								"label": "name",
								"offset": 0,
								"slot": "0",
								"type": "t_bytes32"
							},
							{
								"astId": 30,
								"contract": "Voting.sol:Voting",
								"label": "voteCount",
								"offset": 0,
								"slot": "1",
								"type": "t_uint256"
							}
						],
						"numberOfBytes": "64"
					},
					"t_struct(Voter)26_storage": {
						"encoding": "inplace",
						"label": "struct Voting.Voter",
						"members": [
							{
								"astId": 19,
								"contract": "Voting.sol:Voting",
								"label": "weight",
								"offset": 0,
								"slot": "0",
								"type": "t_uint256"
							},
							{
								"astId": 21,
								"contract": "Voting.sol:Voting",
								"label": "voted",
								"offset": 0,
								"slot": "1",
								"type": "t_bool"
							},
							{
								"astId": 23,
								"contract": "Voting.sol:Voting",
								"label": "delegate",
								"offset": 1,
								"slot": "1",
								"type": "t_address"
							},
							{
								"astId": 25,
								"contract": "Voting.sol:Voting",
								"label": "vote",
								"offset": 0,
								"slot": "2",
								"type": "t_uint256"
							}
						],
						"numberOfBytes": "96"
					},
					"t_uint256": {
						"encoding": "inplace",
						"label": "uint256",
						"numberOfBytes": "32"
					}
				}
			},
			"userdoc": {
				"kind": "user",
				"methods": {},
				"version": 1
			}
		}
	}
}